{
  "address": "0xF58d5d8C5f42F4106530dB44ce427f622dE6f1A0",
  "abi": [
    {
      "inputs": [
        {
          "internalType": "int256",
          "name": "_latitude",
          "type": "int256"
        },
        {
          "internalType": "int256",
          "name": "_longitude",
          "type": "int256"
        },
        {
          "internalType": "uint256",
          "name": "_timestamp",
          "type": "uint256"
        },
        {
          "internalType": "address",
          "name": "_firstAgent",
          "type": "address"
        },
        {
          "internalType": "enum Disaster.AgentType",
          "name": "_firstAgentType",
          "type": "uint8"
        },
        {
          "internalType": "address",
          "name": "_daoAddress",
          "type": "address"
        }
      ],
      "stateMutability": "nonpayable",
      "type": "constructor"
    },
    {
      "anonymous": false,
      "inputs": [
        {
          "indexed": false,
          "internalType": "address",
          "name": "agent",
          "type": "address"
        },
        {
          "indexed": false,
          "internalType": "enum Disaster.AgentType",
          "name": "agentType",
          "type": "uint8"
        }
      ],
      "name": "AgentAttached",
      "type": "event"
    },
    {
      "anonymous": false,
      "inputs": [
        {
          "indexed": false,
          "internalType": "address",
          "name": "individual",
          "type": "address"
        }
      ],
      "name": "IndividualAdded",
      "type": "event"
    },
    {
      "anonymous": false,
      "inputs": [
        {
          "indexed": false,
          "internalType": "address",
          "name": "organization",
          "type": "address"
        }
      ],
      "name": "OrganizationAdded",
      "type": "event"
    },
    {
      "anonymous": false,
      "inputs": [
        {
          "indexed": true,
          "internalType": "address",
          "name": "previousOwner",
          "type": "address"
        },
        {
          "indexed": true,
          "internalType": "address",
          "name": "newOwner",
          "type": "address"
        }
      ],
      "name": "OwnershipTransferred",
      "type": "event"
    },
    {
      "inputs": [
        {
          "internalType": "string",
          "name": "_name",
          "type": "string"
        },
        {
          "internalType": "string",
          "name": "_skills",
          "type": "string"
        }
      ],
      "name": "addIndividual",
      "outputs": [],
      "stateMutability": "nonpayable",
      "type": "function"
    },
    {
      "inputs": [
        {
          "internalType": "string",
          "name": "_name",
          "type": "string"
        },
        {
          "internalType": "string",
          "name": "_expertise",
          "type": "string"
        }
      ],
      "name": "addOrganization",
      "outputs": [],
      "stateMutability": "nonpayable",
      "type": "function"
    },
    {
      "inputs": [
        {
          "internalType": "uint256",
          "name": "",
          "type": "uint256"
        }
      ],
      "name": "agents",
      "outputs": [
        {
          "internalType": "address",
          "name": "agentAddress",
          "type": "address"
        },
        {
          "internalType": "enum Disaster.AgentType",
          "name": "agentType",
          "type": "uint8"
        }
      ],
      "stateMutability": "view",
      "type": "function"
    },
    {
      "inputs": [
        {
          "internalType": "uint256",
          "name": "_individualIndex",
          "type": "uint256"
        },
        {
          "internalType": "string",
          "name": "_task",
          "type": "string"
        }
      ],
      "name": "assignTaskToIndividual",
      "outputs": [],
      "stateMutability": "nonpayable",
      "type": "function"
    },
    {
      "inputs": [
        {
          "internalType": "uint256",
          "name": "_orgIndex",
          "type": "uint256"
        },
        {
          "internalType": "string",
          "name": "_task",
          "type": "string"
        }
      ],
      "name": "assignTaskToOrganization",
      "outputs": [],
      "stateMutability": "nonpayable",
      "type": "function"
    },
    {
      "inputs": [
        {
          "internalType": "address",
          "name": "_agent",
          "type": "address"
        },
        {
          "internalType": "enum Disaster.AgentType",
          "name": "_agentType",
          "type": "uint8"
        }
      ],
      "name": "attachAgent",
      "outputs": [],
      "stateMutability": "nonpayable",
      "type": "function"
    },
    {
      "inputs": [
        {
          "internalType": "uint256",
          "name": "_amount",
          "type": "uint256"
        },
        {
          "internalType": "string",
          "name": "_description",
          "type": "string"
        }
      ],
      "name": "createFundingProposal",
      "outputs": [],
      "stateMutability": "nonpayable",
      "type": "function"
    },
    {
      "inputs": [],
      "name": "dao",
      "outputs": [
        {
          "internalType": "contract DisasterResponseDAO",
          "name": "",
          "type": "address"
        }
      ],
      "stateMutability": "view",
      "type": "function"
    },
    {
      "inputs": [
        {
          "internalType": "uint256",
          "name": "_agentIndex",
          "type": "uint256"
        }
      ],
      "name": "executeAgentAction",
      "outputs": [],
      "stateMutability": "view",
      "type": "function"
    },
    {
      "inputs": [],
      "name": "getAgents",
      "outputs": [
        {
          "components": [
            {
              "internalType": "address",
              "name": "agentAddress",
              "type": "address"
            },
            {
              "internalType": "enum Disaster.AgentType",
              "name": "agentType",
              "type": "uint8"
            }
          ],
          "internalType": "struct Disaster.Agent[]",
          "name": "",
          "type": "tuple[]"
        }
      ],
      "stateMutability": "view",
      "type": "function"
    },
    {
      "inputs": [],
      "name": "getIndividualsCount",
      "outputs": [
        {
          "internalType": "uint256",
          "name": "",
          "type": "uint256"
        }
      ],
      "stateMutability": "view",
      "type": "function"
    },
    {
      "inputs": [],
      "name": "getOrganizationsCount",
      "outputs": [
        {
          "internalType": "uint256",
          "name": "",
          "type": "uint256"
        }
      ],
      "stateMutability": "view",
      "type": "function"
    },
    {
      "inputs": [
        {
          "internalType": "uint256",
          "name": "",
          "type": "uint256"
        }
      ],
      "name": "individuals",
      "outputs": [
        {
          "internalType": "contract Individual",
          "name": "",
          "type": "address"
        }
      ],
      "stateMutability": "view",
      "type": "function"
    },
    {
      "inputs": [],
      "name": "latitude",
      "outputs": [
        {
          "internalType": "int256",
          "name": "",
          "type": "int256"
        }
      ],
      "stateMutability": "view",
      "type": "function"
    },
    {
      "inputs": [],
      "name": "longitude",
      "outputs": [
        {
          "internalType": "int256",
          "name": "",
          "type": "int256"
        }
      ],
      "stateMutability": "view",
      "type": "function"
    },
    {
      "inputs": [
        {
          "internalType": "uint256",
          "name": "",
          "type": "uint256"
        }
      ],
      "name": "organizations",
      "outputs": [
        {
          "internalType": "contract HumanOrganization",
          "name": "",
          "type": "address"
        }
      ],
      "stateMutability": "view",
      "type": "function"
    },
    {
      "inputs": [],
      "name": "owner",
      "outputs": [
        {
          "internalType": "address",
          "name": "",
          "type": "address"
        }
      ],
      "stateMutability": "view",
      "type": "function"
    },
    {
      "inputs": [],
      "name": "renounceOwnership",
      "outputs": [],
      "stateMutability": "nonpayable",
      "type": "function"
    },
    {
      "inputs": [],
      "name": "timestamp",
      "outputs": [
        {
          "internalType": "uint256",
          "name": "",
          "type": "uint256"
        }
      ],
      "stateMutability": "view",
      "type": "function"
    },
    {
      "inputs": [
        {
          "internalType": "address",
          "name": "newOwner",
          "type": "address"
        }
      ],
      "name": "transferOwnership",
      "outputs": [],
      "stateMutability": "nonpayable",
      "type": "function"
    }
  ],
  "transactionHash": "0x44c155b81d46a33f7a442f8083573d5088ef172606f3f6ce4a17df63c2f35df5",
  "args": [
    123456,
    789012,
    1729367702,
    "0xD7d201B7B9FceE8F7e77cb3DB8C77A93caef2D42",
    0,
    "0x3E625A41194b29029b7e1e75503CCCFf93497D52"
  ],
  "numDeployments": 1,
  "solcInputHash": "fcbf6996c81b3bd9dd32542bf0ca0e14",
  "bytecode": "0x60806040523480156200001157600080fd5b5060405162004c4d38038062004c4d8339818101604052810190620000379190620003ab565b620000576200004b620001d760201b60201c565b620001df60201b60201c565b856001819055508460028190555083600381905550600460405180604001604052808573ffffffffffffffffffffffffffffffffffffffff168152602001846002811115620000ab57620000aa62000447565b5b8152509080600181540180825580915050600190039060005260206000200160009091909190915060008201518160000160006101000a81548173ffffffffffffffffffffffffffffffffffffffff021916908373ffffffffffffffffffffffffffffffffffffffff16021790555060208201518160000160146101000a81548160ff0219169083600281111562000148576200014762000447565b5b0217905550505080600760006101000a81548173ffffffffffffffffffffffffffffffffffffffff021916908373ffffffffffffffffffffffffffffffffffffffff1602179055507f9f4c195fb507ad6d3407735a60c78b30a7bdfa431d42a2cf0329a3aa597efd548383604051620001c3929190620004d8565b60405180910390a150505050505062000505565b600033905090565b60008060009054906101000a900473ffffffffffffffffffffffffffffffffffffffff169050816000806101000a81548173ffffffffffffffffffffffffffffffffffffffff021916908373ffffffffffffffffffffffffffffffffffffffff1602179055508173ffffffffffffffffffffffffffffffffffffffff168173ffffffffffffffffffffffffffffffffffffffff167f8be0079c531659141344cd1fd0a4f28419497f9722a3daafe3b4186f6b6457e060405160405180910390a35050565b600080fd5b6000819050919050565b620002bd81620002a8565b8114620002c957600080fd5b50565b600081519050620002dd81620002b2565b92915050565b6000819050919050565b620002f881620002e3565b81146200030457600080fd5b50565b6000815190506200031881620002ed565b92915050565b600073ffffffffffffffffffffffffffffffffffffffff82169050919050565b60006200034b826200031e565b9050919050565b6200035d816200033e565b81146200036957600080fd5b50565b6000815190506200037d8162000352565b92915050565b600381106200039157600080fd5b50565b600081519050620003a58162000383565b92915050565b60008060008060008060c08789031215620003cb57620003ca620002a3565b5b6000620003db89828a01620002cc565b9650506020620003ee89828a01620002cc565b95505060406200040189828a0162000307565b94505060606200041489828a016200036c565b93505060806200042789828a0162000394565b92505060a06200043a89828a016200036c565b9150509295509295509295565b7f4e487b7100000000000000000000000000000000000000000000000000000000600052602160045260246000fd5b62000481816200033e565b82525050565b600381106200049b576200049a62000447565b5b50565b6000819050620004ae8262000487565b919050565b6000620004c0826200049e565b9050919050565b620004d281620004b3565b82525050565b6000604082019050620004ef600083018562000476565b620004fe6020830184620004c7565b9392505050565b61473880620005156000396000f3fe60806040523480156200001157600080fd5b5060043610620001485760003560e01c80637d70cbaf11620000bd578063dacae087116200007b578063dacae0871462000352578063e792dd8a1462000372578063eac3fda414620003a8578063ecd9288f14620003ca578063f2fde38b14620003ec5762000148565b80637d70cbaf14620002ac57806384fa2c8814620002ce5780638da5cb5b14620002ee578063a9ed36421462000310578063b80777ea14620003305762000148565b80634fd7d76a116200010b5780634fd7d76a14620001ef578063513856c81462000211578063589af69c146200024857806366542aa7146200026a578063715018a614620002a05762000148565b806309ce4b9c146200014d5780631cf411d6146200016d578063370f04be146200018d578063388ad66e14620001ad5780634162169f14620001cd575b600080fd5b6200016b600480360381019062000165919062001200565b6200040c565b005b6200018b600480360381019062000185919062001282565b62000538565b005b620001ab6004803603810190620001a5919062001416565b6200087e565b005b620001cb6004803603810190620001c5919062001416565b6200091f565b005b620001d762000a27565b604051620001e69190620014e7565b60405180910390f35b620001f962000a4d565b6040516200020891906200151f565b60405180910390f35b6200022f600480360381019062000229919062001282565b62000a53565b6040516200023f929190620015cd565b60405180910390f35b6200025262000ab1565b6040516200026191906200151f565b60405180910390f35b62000288600480360381019062000282919062001282565b62000ab7565b6040516200029791906200161f565b60405180910390f35b620002aa62000af7565b005b620002b662000b0f565b604051620002c591906200164d565b60405180910390f35b620002ec6004803603810190620002e6919062001416565b62000b1c565b005b620002f862000c24565b6040516200030791906200166a565b60405180910390f35b6200032e600480360381019062000328919062001687565b62000c4d565b005b6200033a62000d37565b6040516200034991906200164d565b60405180910390f35b6200037060048036038101906200036a919062001687565b62000d3d565b005b6200039060048036038101906200038a919062001282565b62000e27565b6040516200039f919062001731565b60405180910390f35b620003b262000e67565b604051620003c1919062001860565b60405180910390f35b620003d462000f5b565b604051620003e391906200164d565b60405180910390f35b6200040a600480360381019062000404919062001884565b62000f68565b005b6200041662000ff2565b600460405180604001604052808473ffffffffffffffffffffffffffffffffffffffff1681526020018360028111156200045557620004546200154d565b5b8152509080600181540180825580915050600190039060005260206000200160009091909190915060008201518160000160006101000a81548173ffffffffffffffffffffffffffffffffffffffff021916908373ffffffffffffffffffffffffffffffffffffffff16021790555060208201518160000160146101000a81548160ff02191690836002811115620004f257620004f16200154d565b5b021790555050507f9f4c195fb507ad6d3407735a60c78b30a7bdfa431d42a2cf0329a3aa597efd5482826040516200052c929190620015cd565b60405180910390a15050565b6200054262000ff2565b60048054905081106200058c576040517f08c379a0000000000000000000000000000000000000000000000000000000008152600401620005839062001917565b60405180910390fd5b600060048281548110620005a557620005a462001939565b5b906000526020600020016040518060400160405290816000820160009054906101000a900473ffffffffffffffffffffffffffffffffffffffff1673ffffffffffffffffffffffffffffffffffffffff1673ffffffffffffffffffffffffffffffffffffffff1681526020016000820160149054906101000a900460ff1660028111156200063857620006376200154d565b5b60028111156200064d576200064c6200154d565b5b815250509050600060028111156200066a57620006696200154d565b5b816020015160028111156200068457620006836200154d565b5b036200070c57806000015173ffffffffffffffffffffffffffffffffffffffff16635ee891386040518163ffffffff1660e01b8152600401600060405180830381865afa158015620006da573d6000803e3d6000fd5b505050506040513d6000823e3d601f19601f8201168201806040525081019062000705919062001a12565b506200087a565b600160028111156200072357620007226200154d565b5b816020015160028111156200073d576200073c6200154d565b5b03620007c557806000015173ffffffffffffffffffffffffffffffffffffffff166360cd14596040518163ffffffff1660e01b8152600401600060405180830381865afa15801562000793573d6000803e3d6000fd5b505050506040513d6000823e3d601f19601f82011682018060405250810190620007be919062001a12565b5062000879565b600280811115620007db57620007da6200154d565b5b81602001516002811115620007f557620007f46200154d565b5b036200087857806000015173ffffffffffffffffffffffffffffffffffffffff16634b2588ad6040518163ffffffff1660e01b8152600401600060405180830381865afa1580156200084b573d6000803e3d6000fd5b505050506040513d6000823e3d601f19601f8201168201806040525081019062000876919062001a12565b505b5b5b5050565b6200088862000ff2565b600760009054906101000a900473ffffffffffffffffffffffffffffffffffffffff1673ffffffffffffffffffffffffffffffffffffffff166302d52fa483836040518363ffffffff1660e01b8152600401620008e792919062001aaf565b600060405180830381600087803b1580156200090257600080fd5b505af115801562000917573d6000803e3d6000fd5b505050505050565b6200092962000ff2565b600680549050821062000973576040517f08c379a00000000000000000000000000000000000000000000000000000000081526004016200096a9062001b33565b60405180910390fd5b600682815481106200098a576200098962001939565b5b9060005260206000200160009054906101000a900473ffffffffffffffffffffffffffffffffffffffff1673ffffffffffffffffffffffffffffffffffffffff1663cb8d902c826040518263ffffffff1660e01b8152600401620009ef919062001b55565b600060405180830381600087803b15801562000a0a57600080fd5b505af115801562000a1f573d6000803e3d6000fd5b505050505050565b600760009054906101000a900473ffffffffffffffffffffffffffffffffffffffff1681565b60015481565b6004818154811062000a6457600080fd5b906000526020600020016000915090508060000160009054906101000a900473ffffffffffffffffffffffffffffffffffffffff16908060000160149054906101000a900460ff16905082565b60025481565b6006818154811062000ac857600080fd5b906000526020600020016000915054906101000a900473ffffffffffffffffffffffffffffffffffffffff1681565b62000b0162000ff2565b62000b0d600062001077565b565b6000600580549050905090565b62000b2662000ff2565b600580549050821062000b70576040517f08c379a000000000000000000000000000000000000000000000000000000000815260040162000b679062001bc9565b60405180910390fd5b6005828154811062000b875762000b8662001939565b5b9060005260206000200160009054906101000a900473ffffffffffffffffffffffffffffffffffffffff1673ffffffffffffffffffffffffffffffffffffffff1663cb8d902c826040518263ffffffff1660e01b815260040162000bec919062001b55565b600060405180830381600087803b15801562000c0757600080fd5b505af115801562000c1c573d6000803e3d6000fd5b505050505050565b60008060009054906101000a900473ffffffffffffffffffffffffffffffffffffffff16905090565b62000c5762000ff2565b6000828260405162000c699062001143565b62000c7692919062001beb565b604051809103906000f08015801562000c93573d6000803e3d6000fd5b5090506005819080600181540180825580915050600190039060005260206000200160009091909190916101000a81548173ffffffffffffffffffffffffffffffffffffffff021916908373ffffffffffffffffffffffffffffffffffffffff1602179055507ff84dfefd1424c476705a9a5ce3238cf6b203e946990646666c5bec8bc8043b2a8160405162000d2a91906200166a565b60405180910390a1505050565b60035481565b62000d4762000ff2565b6000828260405162000d599062001151565b62000d6692919062001beb565b604051809103906000f08015801562000d83573d6000803e3d6000fd5b5090506006819080600181540180825580915050600190039060005260206000200160009091909190916101000a81548173ffffffffffffffffffffffffffffffffffffffff021916908373ffffffffffffffffffffffffffffffffffffffff1602179055507f33ca4a4020fd40caf1c02f519a79a7f9cd778b82b412aa204650315c5385c3908160405162000e1a91906200166a565b60405180910390a1505050565b6005818154811062000e3857600080fd5b906000526020600020016000915054906101000a900473ffffffffffffffffffffffffffffffffffffffff1681565b60606004805480602002602001604051908101604052809291908181526020016000905b8282101562000f52578382906000526020600020016040518060400160405290816000820160009054906101000a900473ffffffffffffffffffffffffffffffffffffffff1673ffffffffffffffffffffffffffffffffffffffff1673ffffffffffffffffffffffffffffffffffffffff1681526020016000820160149054906101000a900460ff16600281111562000f295762000f286200154d565b5b600281111562000f3e5762000f3d6200154d565b5b815250508152602001906001019062000e8b565b50505050905090565b6000600680549050905090565b62000f7262000ff2565b600073ffffffffffffffffffffffffffffffffffffffff168173ffffffffffffffffffffffffffffffffffffffff160362000fe4576040517f08c379a000000000000000000000000000000000000000000000000000000000815260040162000fdb9062001c9c565b60405180910390fd5b62000fef8162001077565b50565b62000ffc6200113b565b73ffffffffffffffffffffffffffffffffffffffff166200101c62000c24565b73ffffffffffffffffffffffffffffffffffffffff161462001075576040517f08c379a00000000000000000000000000000000000000000000000000000000081526004016200106c9062001d0e565b60405180910390fd5b565b60008060009054906101000a900473ffffffffffffffffffffffffffffffffffffffff169050816000806101000a81548173ffffffffffffffffffffffffffffffffffffffff021916908373ffffffffffffffffffffffffffffffffffffffff1602179055508173ffffffffffffffffffffffffffffffffffffffff168173ffffffffffffffffffffffffffffffffffffffff167f8be0079c531659141344cd1fd0a4f28419497f9722a3daafe3b4186f6b6457e060405160405180910390a35050565b600033905090565b6118348062001d3183390190565b61119e806200356583390190565b6000604051905090565b600080fd5b600080fd5b600073ffffffffffffffffffffffffffffffffffffffff82169050919050565b6000620011a08262001173565b9050919050565b620011b28162001193565b8114620011be57600080fd5b50565b600081359050620011d281620011a7565b92915050565b60038110620011e657600080fd5b50565b600081359050620011fa81620011d8565b92915050565b600080604083850312156200121a576200121962001169565b5b60006200122a85828601620011c1565b92505060206200123d85828601620011e9565b9150509250929050565b6000819050919050565b6200125c8162001247565b81146200126857600080fd5b50565b6000813590506200127c8162001251565b92915050565b6000602082840312156200129b576200129a62001169565b5b6000620012ab848285016200126b565b91505092915050565b600080fd5b600080fd5b6000601f19601f8301169050919050565b7f4e487b7100000000000000000000000000000000000000000000000000000000600052604160045260246000fd5b6200130982620012be565b810181811067ffffffffffffffff821117156200132b576200132a620012cf565b5b80604052505050565b6000620013406200115f565b90506200134e8282620012fe565b919050565b600067ffffffffffffffff821115620013715762001370620012cf565b5b6200137c82620012be565b9050602081019050919050565b82818337600083830152505050565b6000620013af620013a98462001353565b62001334565b905082815260208101848484011115620013ce57620013cd620012b9565b5b620013db84828562001389565b509392505050565b600082601f830112620013fb57620013fa620012b4565b5b81356200140d84826020860162001398565b91505092915050565b6000806040838503121562001430576200142f62001169565b5b600062001440858286016200126b565b925050602083013567ffffffffffffffff8111156200146457620014636200116e565b5b6200147285828601620013e3565b9150509250929050565b6000819050919050565b6000620014a7620014a16200149b8462001173565b6200147c565b62001173565b9050919050565b6000620014bb8262001486565b9050919050565b6000620014cf82620014ae565b9050919050565b620014e181620014c2565b82525050565b6000602082019050620014fe6000830184620014d6565b92915050565b6000819050919050565b620015198162001504565b82525050565b60006020820190506200153660008301846200150e565b92915050565b620015478162001193565b82525050565b7f4e487b7100000000000000000000000000000000000000000000000000000000600052602160045260246000fd5b6003811062001590576200158f6200154d565b5b50565b6000819050620015a3826200157c565b919050565b6000620015b58262001593565b9050919050565b620015c781620015a8565b82525050565b6000604082019050620015e460008301856200153c565b620015f36020830184620015bc565b9392505050565b60006200160782620014ae565b9050919050565b6200161981620015fa565b82525050565b60006020820190506200163660008301846200160e565b92915050565b620016478162001247565b82525050565b60006020820190506200166460008301846200163c565b92915050565b60006020820190506200168160008301846200153c565b92915050565b60008060408385031215620016a157620016a062001169565b5b600083013567ffffffffffffffff811115620016c257620016c16200116e565b5b620016d085828601620013e3565b925050602083013567ffffffffffffffff811115620016f457620016f36200116e565b5b6200170285828601620013e3565b9150509250929050565b60006200171982620014ae565b9050919050565b6200172b816200170c565b82525050565b600060208201905062001748600083018462001720565b92915050565b600081519050919050565b600082825260208201905092915050565b6000819050602082019050919050565b620017858162001193565b82525050565b6200179681620015a8565b82525050565b604082016000820151620017b460008501826200177a565b506020820151620017c960208501826200178b565b50505050565b6000620017dd83836200179c565b60408301905092915050565b6000602082019050919050565b600062001803826200174e565b6200180f818562001759565b93506200181c836200176a565b8060005b8381101562001853578151620018378882620017cf565b97506200184483620017e9565b92505060018101905062001820565b5085935050505092915050565b600060208201905081810360008301526200187c8184620017f6565b905092915050565b6000602082840312156200189d576200189c62001169565b5b6000620018ad84828501620011c1565b91505092915050565b600082825260208201905092915050565b7f496e76616c6964206167656e7420696e64657800000000000000000000000000600082015250565b6000620018ff601383620018b6565b91506200190c82620018c7565b602082019050919050565b600060208201905081810360008301526200193281620018f0565b9050919050565b7f4e487b7100000000000000000000000000000000000000000000000000000000600052603260045260246000fd5b60005b83811015620019885780820151818401526020810190506200196b565b60008484015250505050565b6000620019ab620019a58462001353565b62001334565b905082815260208101848484011115620019ca57620019c9620012b9565b5b620019d784828562001968565b509392505050565b600082601f830112620019f757620019f6620012b4565b5b815162001a0984826020860162001994565b91505092915050565b60006020828403121562001a2b5762001a2a62001169565b5b600082015167ffffffffffffffff81111562001a4c5762001a4b6200116e565b5b62001a5a84828501620019df565b91505092915050565b600081519050919050565b600062001a7b8262001a63565b62001a878185620018b6565b935062001a9981856020860162001968565b62001aa481620012be565b840191505092915050565b600060408201905062001ac660008301856200163c565b818103602083015262001ada818462001a6e565b90509392505050565b7f496e76616c696420696e646976696475616c20696e6465780000000000000000600082015250565b600062001b1b601883620018b6565b915062001b288262001ae3565b602082019050919050565b6000602082019050818103600083015262001b4e8162001b0c565b9050919050565b6000602082019050818103600083015262001b71818462001a6e565b905092915050565b7f496e76616c6964206f7267616e697a6174696f6e20696e646578000000000000600082015250565b600062001bb1601a83620018b6565b915062001bbe8262001b79565b602082019050919050565b6000602082019050818103600083015262001be48162001ba2565b9050919050565b6000604082019050818103600083015262001c07818562001a6e565b9050818103602083015262001c1d818462001a6e565b90509392505050565b7f4f776e61626c653a206e6577206f776e657220697320746865207a65726f206160008201527f6464726573730000000000000000000000000000000000000000000000000000602082015250565b600062001c84602683620018b6565b915062001c918262001c26565b604082019050919050565b6000602082019050818103600083015262001cb78162001c75565b9050919050565b7f4f776e61626c653a2063616c6c6572206973206e6f7420746865206f776e6572600082015250565b600062001cf6602083620018b6565b915062001d038262001cbe565b602082019050919050565b6000602082019050818103600083015262001d298162001ce7565b905091905056fe60806040523480156200001157600080fd5b5060405162001834380380620018348339818101604052810190620000379190620002fd565b620000576200004b6200009e60201b60201c565b620000a660201b60201c565b8160019081620000689190620005cd565b5080600290816200007a9190620005cd565b506001600460006101000a81548160ff0219169083151502179055505050620006b4565b600033905090565b60008060009054906101000a900473ffffffffffffffffffffffffffffffffffffffff169050816000806101000a81548173ffffffffffffffffffffffffffffffffffffffff021916908373ffffffffffffffffffffffffffffffffffffffff1602179055508173ffffffffffffffffffffffffffffffffffffffff168173ffffffffffffffffffffffffffffffffffffffff167f8be0079c531659141344cd1fd0a4f28419497f9722a3daafe3b4186f6b6457e060405160405180910390a35050565b6000604051905090565b600080fd5b600080fd5b600080fd5b600080fd5b6000601f19601f8301169050919050565b7f4e487b7100000000000000000000000000000000000000000000000000000000600052604160045260246000fd5b620001d38262000188565b810181811067ffffffffffffffff82111715620001f557620001f462000199565b5b80604052505050565b60006200020a6200016a565b9050620002188282620001c8565b919050565b600067ffffffffffffffff8211156200023b576200023a62000199565b5b620002468262000188565b9050602081019050919050565b60005b838110156200027357808201518184015260208101905062000256565b60008484015250505050565b60006200029662000290846200021d565b620001fe565b905082815260208101848484011115620002b557620002b462000183565b5b620002c284828562000253565b509392505050565b600082601f830112620002e257620002e16200017e565b5b8151620002f48482602086016200027f565b91505092915050565b6000806040838503121562000317576200031662000174565b5b600083015167ffffffffffffffff81111562000338576200033762000179565b5b6200034685828601620002ca565b925050602083015167ffffffffffffffff8111156200036a576200036962000179565b5b6200037885828601620002ca565b9150509250929050565b600081519050919050565b7f4e487b7100000000000000000000000000000000000000000000000000000000600052602260045260246000fd5b60006002820490506001821680620003d557607f821691505b602082108103620003eb57620003ea6200038d565b5b50919050565b60008190508160005260206000209050919050565b60006020601f8301049050919050565b600082821b905092915050565b600060088302620004557fffffffffffffffffffffffffffffffffffffffffffffffffffffffffffffffff8262000416565b62000461868362000416565b95508019841693508086168417925050509392505050565b6000819050919050565b6000819050919050565b6000620004ae620004a8620004a28462000479565b62000483565b62000479565b9050919050565b6000819050919050565b620004ca836200048d565b620004e2620004d982620004b5565b84845462000423565b825550505050565b600090565b620004f9620004ea565b62000506818484620004bf565b505050565b5b818110156200052e5762000522600082620004ef565b6001810190506200050c565b5050565b601f8211156200057d576200054781620003f1565b620005528462000406565b8101602085101562000562578190505b6200057a620005718562000406565b8301826200050b565b50505b505050565b600082821c905092915050565b6000620005a26000198460080262000582565b1980831691505092915050565b6000620005bd83836200058f565b9150826002028217905092915050565b620005d88262000382565b67ffffffffffffffff811115620005f457620005f362000199565b5b620006008254620003bc565b6200060d82828562000532565b600060209050601f83116001811462000645576000841562000630578287015190505b6200063c8582620005af565b865550620006ac565b601f1984166200065586620003f1565b60005b828110156200067f5784890151825560018201915060208501945060208101905062000658565b868310156200069f57848901516200069b601f8916826200058f565b8355505b6001600288020188555050505b505050505050565b61117080620006c46000396000f3fe608060405234801561001057600080fd5b50600436106100a95760003560e01c80638a15309b116100715780638a15309b146101405780638c23a3531461015c5780638da5cb5b1461017a578063c1cc57b014610198578063cb8d902c146101b6578063f2fde38b146101d2576100a9565b806306fdde03146100ae578063244d6daa146100cc57806326a18375146100fc578063715018a614610118578063856c71dd14610122575b600080fd5b6100b66101ee565b6040516100c39190610869565b60405180910390f35b6100e660048036038101906100e191906108d5565b61027c565b6040516100f39190610869565b60405180910390f35b6101166004803603810190610111919061093a565b610328565b005b61012061034d565b005b61012a610361565b6040516101379190610976565b60405180910390f35b61015a60048036038101906101559190610ac6565b610374565b005b6101646103eb565b6040516101719190610869565b60405180910390f35b610182610479565b60405161018f9190610b50565b60405180910390f35b6101a06104a2565b6040516101ad9190610c77565b60405180910390f35b6101d060048036038101906101cb9190610ac6565b61057b565b005b6101ec60048036038101906101e79190610cc5565b61060c565b005b600180546101fb90610d21565b80601f016020809104026020016040519081016040528092919081815260200182805461022790610d21565b80156102745780601f1061024957610100808354040283529160200191610274565b820191906000526020600020905b81548152906001019060200180831161025757829003601f168201915b505050505081565b6003818154811061028c57600080fd5b9060005260206000200160009150905080546102a790610d21565b80601f01602080910402602001604051908101604052809291908181526020018280546102d390610d21565b80156103205780601f106102f557610100808354040283529160200191610320565b820191906000526020600020905b81548152906001019060200180831161030357829003601f168201915b505050505081565b61033061068f565b80600460006101000a81548160ff02191690831515021790555050565b61035561068f565b61035f600061070d565b565b600460009054906101000a900460ff1681565b61037c61068f565b6003819080600181540180825580915050600190039060005260206000200160009091909190915090816103b09190610efe565b507f59059f4c91eb9cb9081478c3ed8944836dc5cdb0abb68ed29f4166a1ce441966816040516103e09190610869565b60405180910390a150565b600280546103f890610d21565b80601f016020809104026020016040519081016040528092919081815260200182805461042490610d21565b80156104715780601f1061044657610100808354040283529160200191610471565b820191906000526020600020905b81548152906001019060200180831161045457829003601f168201915b505050505081565b60008060009054906101000a900473ffffffffffffffffffffffffffffffffffffffff16905090565b60606003805480602002602001604051908101604052809291908181526020016000905b828210156105725783829060005260206000200180546104e590610d21565b80601f016020809104026020016040519081016040528092919081815260200182805461051190610d21565b801561055e5780601f106105335761010080835404028352916020019161055e565b820191906000526020600020905b81548152906001019060200180831161054157829003601f168201915b5050505050815260200190600101906104c6565b50505050905090565b61058361068f565b600460009054906101000a900460ff166105d2576040517f08c379a00000000000000000000000000000000000000000000000000000000081526004016105c99061101c565b60405180910390fd5b7fe661f69b340c857b7ae656ac737b7ee977a4e9e8e5bd4bcde5df4e17e17a3e4d816040516106019190610869565b60405180910390a150565b61061461068f565b600073ffffffffffffffffffffffffffffffffffffffff168173ffffffffffffffffffffffffffffffffffffffff1603610683576040517f08c379a000000000000000000000000000000000000000000000000000000000815260040161067a906110ae565b60405180910390fd5b61068c8161070d565b50565b6106976107d1565b73ffffffffffffffffffffffffffffffffffffffff166106b5610479565b73ffffffffffffffffffffffffffffffffffffffff161461070b576040517f08c379a00000000000000000000000000000000000000000000000000000000081526004016107029061111a565b60405180910390fd5b565b60008060009054906101000a900473ffffffffffffffffffffffffffffffffffffffff169050816000806101000a81548173ffffffffffffffffffffffffffffffffffffffff021916908373ffffffffffffffffffffffffffffffffffffffff1602179055508173ffffffffffffffffffffffffffffffffffffffff168173ffffffffffffffffffffffffffffffffffffffff167f8be0079c531659141344cd1fd0a4f28419497f9722a3daafe3b4186f6b6457e060405160405180910390a35050565b600033905090565b600081519050919050565b600082825260208201905092915050565b60005b838110156108135780820151818401526020810190506107f8565b60008484015250505050565b6000601f19601f8301169050919050565b600061083b826107d9565b61084581856107e4565b93506108558185602086016107f5565b61085e8161081f565b840191505092915050565b600060208201905081810360008301526108838184610830565b905092915050565b6000604051905090565b600080fd5b600080fd5b6000819050919050565b6108b28161089f565b81146108bd57600080fd5b50565b6000813590506108cf816108a9565b92915050565b6000602082840312156108eb576108ea610895565b5b60006108f9848285016108c0565b91505092915050565b60008115159050919050565b61091781610902565b811461092257600080fd5b50565b6000813590506109348161090e565b92915050565b6000602082840312156109505761094f610895565b5b600061095e84828501610925565b91505092915050565b61097081610902565b82525050565b600060208201905061098b6000830184610967565b92915050565b600080fd5b600080fd5b7f4e487b7100000000000000000000000000000000000000000000000000000000600052604160045260246000fd5b6109d38261081f565b810181811067ffffffffffffffff821117156109f2576109f161099b565b5b80604052505050565b6000610a0561088b565b9050610a1182826109ca565b919050565b600067ffffffffffffffff821115610a3157610a3061099b565b5b610a3a8261081f565b9050602081019050919050565b82818337600083830152505050565b6000610a69610a6484610a16565b6109fb565b905082815260208101848484011115610a8557610a84610996565b5b610a90848285610a47565b509392505050565b600082601f830112610aad57610aac610991565b5b8135610abd848260208601610a56565b91505092915050565b600060208284031215610adc57610adb610895565b5b600082013567ffffffffffffffff811115610afa57610af961089a565b5b610b0684828501610a98565b91505092915050565b600073ffffffffffffffffffffffffffffffffffffffff82169050919050565b6000610b3a82610b0f565b9050919050565b610b4a81610b2f565b82525050565b6000602082019050610b656000830184610b41565b92915050565b600081519050919050565b600082825260208201905092915050565b6000819050602082019050919050565b600082825260208201905092915050565b6000610bb3826107d9565b610bbd8185610b97565b9350610bcd8185602086016107f5565b610bd68161081f565b840191505092915050565b6000610bed8383610ba8565b905092915050565b6000602082019050919050565b6000610c0d82610b6b565b610c178185610b76565b935083602082028501610c2985610b87565b8060005b85811015610c655784840389528151610c468582610be1565b9450610c5183610bf5565b925060208a01995050600181019050610c2d565b50829750879550505050505092915050565b60006020820190508181036000830152610c918184610c02565b905092915050565b610ca281610b2f565b8114610cad57600080fd5b50565b600081359050610cbf81610c99565b92915050565b600060208284031215610cdb57610cda610895565b5b6000610ce984828501610cb0565b91505092915050565b7f4e487b7100000000000000000000000000000000000000000000000000000000600052602260045260246000fd5b60006002820490506001821680610d3957607f821691505b602082108103610d4c57610d4b610cf2565b5b50919050565b60008190508160005260206000209050919050565b60006020601f8301049050919050565b600082821b905092915050565b600060088302610db47fffffffffffffffffffffffffffffffffffffffffffffffffffffffffffffffff82610d77565b610dbe8683610d77565b95508019841693508086168417925050509392505050565b6000819050919050565b6000610dfb610df6610df18461089f565b610dd6565b61089f565b9050919050565b6000819050919050565b610e1583610de0565b610e29610e2182610e02565b848454610d84565b825550505050565b600090565b610e3e610e31565b610e49818484610e0c565b505050565b5b81811015610e6d57610e62600082610e36565b600181019050610e4f565b5050565b601f821115610eb257610e8381610d52565b610e8c84610d67565b81016020851015610e9b578190505b610eaf610ea785610d67565b830182610e4e565b50505b505050565b600082821c905092915050565b6000610ed560001984600802610eb7565b1980831691505092915050565b6000610eee8383610ec4565b9150826002028217905092915050565b610f07826107d9565b67ffffffffffffffff811115610f2057610f1f61099b565b5b610f2a8254610d21565b610f35828285610e71565b600060209050601f831160018114610f685760008415610f56578287015190505b610f608582610ee2565b865550610fc8565b601f198416610f7686610d52565b60005b82811015610f9e57848901518255600182019150602085019450602081019050610f79565b86831015610fbb5784890151610fb7601f891682610ec4565b8355505b6001600288020188555050505b505050505050565b7f4f7267616e697a6174696f6e206973206e6f7420617661696c61626c65000000600082015250565b6000611006601d836107e4565b915061101182610fd0565b602082019050919050565b6000602082019050818103600083015261103581610ff9565b9050919050565b7f4f776e61626c653a206e6577206f776e657220697320746865207a65726f206160008201527f6464726573730000000000000000000000000000000000000000000000000000602082015250565b60006110986026836107e4565b91506110a38261103c565b604082019050919050565b600060208201905081810360008301526110c78161108b565b9050919050565b7f4f776e61626c653a2063616c6c6572206973206e6f7420746865206f776e6572600082015250565b60006111046020836107e4565b915061110f826110ce565b602082019050919050565b60006020820190508181036000830152611133816110f7565b905091905056fea2646970667358221220250f734efaff088dc4deb7dab7be2a85c71816a8b3feeec32db65e00405c9f1564736f6c6343000811003360806040523480156200001157600080fd5b506040516200119e3803806200119e8339818101604052810190620000379190620002fd565b620000576200004b6200009e60201b60201c565b620000a660201b60201c565b8160019081620000689190620005cd565b5080600290816200007a9190620005cd565b506001600360006101000a81548160ff0219169083151502179055505050620006b4565b600033905090565b60008060009054906101000a900473ffffffffffffffffffffffffffffffffffffffff169050816000806101000a81548173ffffffffffffffffffffffffffffffffffffffff021916908373ffffffffffffffffffffffffffffffffffffffff1602179055508173ffffffffffffffffffffffffffffffffffffffff168173ffffffffffffffffffffffffffffffffffffffff167f8be0079c531659141344cd1fd0a4f28419497f9722a3daafe3b4186f6b6457e060405160405180910390a35050565b6000604051905090565b600080fd5b600080fd5b600080fd5b600080fd5b6000601f19601f8301169050919050565b7f4e487b7100000000000000000000000000000000000000000000000000000000600052604160045260246000fd5b620001d38262000188565b810181811067ffffffffffffffff82111715620001f557620001f462000199565b5b80604052505050565b60006200020a6200016a565b9050620002188282620001c8565b919050565b600067ffffffffffffffff8211156200023b576200023a62000199565b5b620002468262000188565b9050602081019050919050565b60005b838110156200027357808201518184015260208101905062000256565b60008484015250505050565b60006200029662000290846200021d565b620001fe565b905082815260208101848484011115620002b557620002b462000183565b5b620002c284828562000253565b509392505050565b600082601f830112620002e257620002e16200017e565b5b8151620002f48482602086016200027f565b91505092915050565b6000806040838503121562000317576200031662000174565b5b600083015167ffffffffffffffff81111562000338576200033762000179565b5b6200034685828601620002ca565b925050602083015167ffffffffffffffff8111156200036a576200036962000179565b5b6200037885828601620002ca565b9150509250929050565b600081519050919050565b7f4e487b7100000000000000000000000000000000000000000000000000000000600052602260045260246000fd5b60006002820490506001821680620003d557607f821691505b602082108103620003eb57620003ea6200038d565b5b50919050565b60008190508160005260206000209050919050565b60006020601f8301049050919050565b600082821b905092915050565b600060088302620004557fffffffffffffffffffffffffffffffffffffffffffffffffffffffffffffffff8262000416565b62000461868362000416565b95508019841693508086168417925050509392505050565b6000819050919050565b6000819050919050565b6000620004ae620004a8620004a28462000479565b62000483565b62000479565b9050919050565b6000819050919050565b620004ca836200048d565b620004e2620004d982620004b5565b84845462000423565b825550505050565b600090565b620004f9620004ea565b62000506818484620004bf565b505050565b5b818110156200052e5762000522600082620004ef565b6001810190506200050c565b5050565b601f8211156200057d576200054781620003f1565b620005528462000406565b8101602085101562000562578190505b6200057a620005718562000406565b8301826200050b565b50505b505050565b600082821c905092915050565b6000620005a26000198460080262000582565b1980831691505092915050565b6000620005bd83836200058f565b9150826002028217905092915050565b620005d88262000382565b67ffffffffffffffff811115620005f457620005f362000199565b5b620006008254620003bc565b6200060d82828562000532565b600060209050601f83116001811462000645576000841562000630578287015190505b6200063c8582620005af565b865550620006ac565b601f1984166200065586620003f1565b60005b828110156200067f5784890151825560018201915060208501945060208101905062000658565b868310156200069f57848901516200069b601f8916826200058f565b8355505b6001600288020188555050505b505050505050565b610ada80620006c46000396000f3fe608060405234801561001057600080fd5b50600436106100885760003560e01c8063856c71dd1161005b578063856c71dd146100ef5780638da5cb5b1461010d578063cb8d902c1461012b578063f2fde38b1461014757610088565b806306fdde031461008d57806326a18375146100ab5780633b7fdb73146100c7578063715018a6146100e5575b600080fd5b610095610163565b6040516100a291906105e2565b60405180910390f35b6100c560048036038101906100c09190610650565b6101f1565b005b6100cf610216565b6040516100dc91906105e2565b60405180910390f35b6100ed6102a4565b005b6100f76102b8565b604051610104919061068c565b60405180910390f35b6101156102cb565b60405161012291906106e8565b60405180910390f35b61014560048036038101906101409190610838565b6102f4565b005b610161600480360381019061015c91906108ad565b610385565b005b6001805461017090610909565b80601f016020809104026020016040519081016040528092919081815260200182805461019c90610909565b80156101e95780601f106101be576101008083540402835291602001916101e9565b820191906000526020600020905b8154815290600101906020018083116101cc57829003601f168201915b505050505081565b6101f9610408565b80600360006101000a81548160ff02191690831515021790555050565b6002805461022390610909565b80601f016020809104026020016040519081016040528092919081815260200182805461024f90610909565b801561029c5780601f106102715761010080835404028352916020019161029c565b820191906000526020600020905b81548152906001019060200180831161027f57829003601f168201915b505050505081565b6102ac610408565b6102b66000610486565b565b600360009054906101000a900460ff1681565b60008060009054906101000a900473ffffffffffffffffffffffffffffffffffffffff16905090565b6102fc610408565b600360009054906101000a900460ff1661034b576040517f08c379a000000000000000000000000000000000000000000000000000000000815260040161034290610986565b60405180910390fd5b7fe661f69b340c857b7ae656ac737b7ee977a4e9e8e5bd4bcde5df4e17e17a3e4d8160405161037a91906105e2565b60405180910390a150565b61038d610408565b600073ffffffffffffffffffffffffffffffffffffffff168173ffffffffffffffffffffffffffffffffffffffff16036103fc576040517f08c379a00000000000000000000000000000000000000000000000000000000081526004016103f390610a18565b60405180910390fd5b61040581610486565b50565b61041061054a565b73ffffffffffffffffffffffffffffffffffffffff1661042e6102cb565b73ffffffffffffffffffffffffffffffffffffffff1614610484576040517f08c379a000000000000000000000000000000000000000000000000000000000815260040161047b90610a84565b60405180910390fd5b565b60008060009054906101000a900473ffffffffffffffffffffffffffffffffffffffff169050816000806101000a81548173ffffffffffffffffffffffffffffffffffffffff021916908373ffffffffffffffffffffffffffffffffffffffff1602179055508173ffffffffffffffffffffffffffffffffffffffff168173ffffffffffffffffffffffffffffffffffffffff167f8be0079c531659141344cd1fd0a4f28419497f9722a3daafe3b4186f6b6457e060405160405180910390a35050565b600033905090565b600081519050919050565b600082825260208201905092915050565b60005b8381101561058c578082015181840152602081019050610571565b60008484015250505050565b6000601f19601f8301169050919050565b60006105b482610552565b6105be818561055d565b93506105ce81856020860161056e565b6105d781610598565b840191505092915050565b600060208201905081810360008301526105fc81846105a9565b905092915050565b6000604051905090565b600080fd5b600080fd5b60008115159050919050565b61062d81610618565b811461063857600080fd5b50565b60008135905061064a81610624565b92915050565b6000602082840312156106665761066561060e565b5b60006106748482850161063b565b91505092915050565b61068681610618565b82525050565b60006020820190506106a1600083018461067d565b92915050565b600073ffffffffffffffffffffffffffffffffffffffff82169050919050565b60006106d2826106a7565b9050919050565b6106e2816106c7565b82525050565b60006020820190506106fd60008301846106d9565b92915050565b600080fd5b600080fd5b7f4e487b7100000000000000000000000000000000000000000000000000000000600052604160045260246000fd5b61074582610598565b810181811067ffffffffffffffff821117156107645761076361070d565b5b80604052505050565b6000610777610604565b9050610783828261073c565b919050565b600067ffffffffffffffff8211156107a3576107a261070d565b5b6107ac82610598565b9050602081019050919050565b82818337600083830152505050565b60006107db6107d684610788565b61076d565b9050828152602081018484840111156107f7576107f6610708565b5b6108028482856107b9565b509392505050565b600082601f83011261081f5761081e610703565b5b813561082f8482602086016107c8565b91505092915050565b60006020828403121561084e5761084d61060e565b5b600082013567ffffffffffffffff81111561086c5761086b610613565b5b6108788482850161080a565b91505092915050565b61088a816106c7565b811461089557600080fd5b50565b6000813590506108a781610881565b92915050565b6000602082840312156108c3576108c261060e565b5b60006108d184828501610898565b91505092915050565b7f4e487b7100000000000000000000000000000000000000000000000000000000600052602260045260246000fd5b6000600282049050600182168061092157607f821691505b602082108103610934576109336108da565b5b50919050565b7f496e646976696475616c206973206e6f7420617661696c61626c650000000000600082015250565b6000610970601b8361055d565b915061097b8261093a565b602082019050919050565b6000602082019050818103600083015261099f81610963565b9050919050565b7f4f776e61626c653a206e6577206f776e657220697320746865207a65726f206160008201527f6464726573730000000000000000000000000000000000000000000000000000602082015250565b6000610a0260268361055d565b9150610a0d826109a6565b604082019050919050565b60006020820190508181036000830152610a31816109f5565b9050919050565b7f4f776e61626c653a2063616c6c6572206973206e6f7420746865206f776e6572600082015250565b6000610a6e60208361055d565b9150610a7982610a38565b602082019050919050565b60006020820190508181036000830152610a9d81610a61565b905091905056fea26469706673582212203d755d9c2f19de89e59610f0537f87096d5955c50a8230bb172ff10d1400afef64736f6c63430008110033a2646970667358221220c97277b50f9fd41976142e6db1fd14647aa3baa0171bdbf10fd27e819374a8a464736f6c63430008110033",
  "devdoc": {
    "kind": "dev",
    "methods": {
      "owner()": {
        "details": "Returns the address of the current owner."
      },
      "renounceOwnership()": {
        "details": "Leaves the contract without owner. It will not be possible to call `onlyOwner` functions. Can only be called by the current owner. NOTE: Renouncing ownership will leave the contract without an owner, thereby disabling any functionality that is only available to the owner."
      },
      "transferOwnership(address)": {
        "details": "Transfers ownership of the contract to a new account (`newOwner`). Can only be called by the current owner."
      }
    },
    "version": 1
  },
  "userdoc": {
    "kind": "user",
    "methods": {},
    "version": 1
  },
  "storageLayout": {
    "storage": [
      {
        "astId": 7,
        "contract": "contracts/Disaster.sol:Disaster",
        "label": "_owner",
        "offset": 0,
        "slot": "0",
        "type": "t_address"
      },
      {
        "astId": 1297,
        "contract": "contracts/Disaster.sol:Disaster",
        "label": "latitude",
        "offset": 0,
        "slot": "1",
        "type": "t_int256"
      },
      {
        "astId": 1299,
        "contract": "contracts/Disaster.sol:Disaster",
        "label": "longitude",
        "offset": 0,
        "slot": "2",
        "type": "t_int256"
      },
      {
        "astId": 1301,
        "contract": "contracts/Disaster.sol:Disaster",
        "label": "timestamp",
        "offset": 0,
        "slot": "3",
        "type": "t_uint256"
      },
      {
        "astId": 1305,
        "contract": "contracts/Disaster.sol:Disaster",
        "label": "agents",
        "offset": 0,
        "slot": "4",
        "type": "t_array(t_struct(Agent)1295_storage)dyn_storage"
      },
      {
        "astId": 1309,
        "contract": "contracts/Disaster.sol:Disaster",
        "label": "organizations",
        "offset": 0,
        "slot": "5",
        "type": "t_array(t_contract(HumanOrganization)2443)dyn_storage"
      },
      {
        "astId": 1313,
        "contract": "contracts/Disaster.sol:Disaster",
        "label": "individuals",
        "offset": 0,
        "slot": "6",
        "type": "t_array(t_contract(Individual)2508)dyn_storage"
      },
      {
        "astId": 1316,
        "contract": "contracts/Disaster.sol:Disaster",
        "label": "dao",
        "offset": 0,
        "slot": "7",
        "type": "t_contract(DisasterResponseDAO)2344"
      }
    ],
    "types": {
      "t_address": {
        "encoding": "inplace",
        "label": "address",
        "numberOfBytes": "20"
      },
      "t_array(t_contract(HumanOrganization)2443)dyn_storage": {
        "base": "t_contract(HumanOrganization)2443",
        "encoding": "dynamic_array",
        "label": "contract HumanOrganization[]",
        "numberOfBytes": "32"
      },
      "t_array(t_contract(Individual)2508)dyn_storage": {
        "base": "t_contract(Individual)2508",
        "encoding": "dynamic_array",
        "label": "contract Individual[]",
        "numberOfBytes": "32"
      },
      "t_array(t_struct(Agent)1295_storage)dyn_storage": {
        "base": "t_struct(Agent)1295_storage",
        "encoding": "dynamic_array",
        "label": "struct Disaster.Agent[]",
        "numberOfBytes": "32"
      },
      "t_contract(DisasterResponseDAO)2344": {
        "encoding": "inplace",
        "label": "contract DisasterResponseDAO",
        "numberOfBytes": "20"
      },
      "t_contract(HumanOrganization)2443": {
        "encoding": "inplace",
        "label": "contract HumanOrganization",
        "numberOfBytes": "20"
      },
      "t_contract(Individual)2508": {
        "encoding": "inplace",
        "label": "contract Individual",
        "numberOfBytes": "20"
      },
      "t_enum(AgentType)1289": {
        "encoding": "inplace",
        "label": "enum Disaster.AgentType",
        "numberOfBytes": "1"
      },
      "t_int256": {
        "encoding": "inplace",
        "label": "int256",
        "numberOfBytes": "32"
      },
      "t_struct(Agent)1295_storage": {
        "encoding": "inplace",
        "label": "struct Disaster.Agent",
        "members": [
          {
            "astId": 1291,
            "contract": "contracts/Disaster.sol:Disaster",
            "label": "agentAddress",
            "offset": 0,
            "slot": "0",
            "type": "t_address"
          },
          {
            "astId": 1294,
            "contract": "contracts/Disaster.sol:Disaster",
            "label": "agentType",
            "offset": 20,
            "slot": "0",
            "type": "t_enum(AgentType)1289"
          }
        ],
        "numberOfBytes": "32"
      },
      "t_uint256": {
        "encoding": "inplace",
        "label": "uint256",
        "numberOfBytes": "32"
      }
    }
  }
}