{
  "address": "0xb8ce31E2d315929cc52F3184C59012E5Bcd353E2",
  "abi": [
    {
      "inputs": [
        {
          "internalType": "address",
          "name": "_token",
          "type": "address"
        },
        {
          "internalType": "uint256",
          "name": "_quorum",
          "type": "uint256"
        },
        {
          "internalType": "uint256",
          "name": "_votingPeriod",
          "type": "uint256"
        }
      ],
      "stateMutability": "nonpayable",
      "type": "constructor"
    },
    {
      "anonymous": false,
      "inputs": [
        {
          "indexed": false,
          "internalType": "address",
          "name": "agent",
          "type": "address"
        }
      ],
      "name": "AgentAdded",
      "type": "event"
    },
    {
      "anonymous": false,
      "inputs": [
        {
          "indexed": false,
          "internalType": "address",
          "name": "agent",
          "type": "address"
        }
      ],
      "name": "AgentRemoved",
      "type": "event"
    },
    {
      "anonymous": false,
      "inputs": [
        {
          "indexed": true,
          "internalType": "address",
          "name": "previousOwner",
          "type": "address"
        },
        {
          "indexed": true,
          "internalType": "address",
          "name": "newOwner",
          "type": "address"
        }
      ],
      "name": "OwnershipTransferred",
      "type": "event"
    },
    {
      "anonymous": false,
      "inputs": [
        {
          "indexed": false,
          "internalType": "uint256",
          "name": "proposalId",
          "type": "uint256"
        },
        {
          "indexed": false,
          "internalType": "address",
          "name": "proposer",
          "type": "address"
        },
        {
          "indexed": false,
          "internalType": "uint256",
          "name": "amount",
          "type": "uint256"
        },
        {
          "indexed": false,
          "internalType": "string",
          "name": "description",
          "type": "string"
        }
      ],
      "name": "ProposalCreated",
      "type": "event"
    },
    {
      "anonymous": false,
      "inputs": [
        {
          "indexed": false,
          "internalType": "uint256",
          "name": "proposalId",
          "type": "uint256"
        }
      ],
      "name": "ProposalExecuted",
      "type": "event"
    },
    {
      "anonymous": false,
      "inputs": [
        {
          "indexed": false,
          "internalType": "uint256",
          "name": "proposalId",
          "type": "uint256"
        },
        {
          "indexed": false,
          "internalType": "address",
          "name": "voter",
          "type": "address"
        },
        {
          "indexed": false,
          "internalType": "bool",
          "name": "inSupport",
          "type": "bool"
        }
      ],
      "name": "Voted",
      "type": "event"
    },
    {
      "inputs": [
        {
          "internalType": "address",
          "name": "_agent",
          "type": "address"
        }
      ],
      "name": "addAgent",
      "outputs": [],
      "stateMutability": "nonpayable",
      "type": "function"
    },
    {
      "inputs": [
        {
          "internalType": "uint256",
          "name": "_amount",
          "type": "uint256"
        },
        {
          "internalType": "string",
          "name": "_description",
          "type": "string"
        }
      ],
      "name": "createProposal",
      "outputs": [],
      "stateMutability": "nonpayable",
      "type": "function"
    },
    {
      "inputs": [
        {
          "internalType": "uint256",
          "name": "_amount",
          "type": "uint256"
        }
      ],
      "name": "depositFunds",
      "outputs": [],
      "stateMutability": "nonpayable",
      "type": "function"
    },
    {
      "inputs": [
        {
          "internalType": "uint256",
          "name": "_proposalId",
          "type": "uint256"
        }
      ],
      "name": "getProposalDetails",
      "outputs": [
        {
          "internalType": "address",
          "name": "proposer",
          "type": "address"
        },
        {
          "internalType": "uint256",
          "name": "amount",
          "type": "uint256"
        },
        {
          "internalType": "string",
          "name": "description",
          "type": "string"
        },
        {
          "internalType": "uint256",
          "name": "yesVotes",
          "type": "uint256"
        },
        {
          "internalType": "uint256",
          "name": "noVotes",
          "type": "uint256"
        },
        {
          "internalType": "bool",
          "name": "executed",
          "type": "bool"
        }
      ],
      "stateMutability": "view",
      "type": "function"
    },
    {
      "inputs": [
        {
          "internalType": "address",
          "name": "",
          "type": "address"
        }
      ],
      "name": "isAgent",
      "outputs": [
        {
          "internalType": "bool",
          "name": "",
          "type": "bool"
        }
      ],
      "stateMutability": "view",
      "type": "function"
    },
    {
      "inputs": [],
      "name": "owner",
      "outputs": [
        {
          "internalType": "address",
          "name": "",
          "type": "address"
        }
      ],
      "stateMutability": "view",
      "type": "function"
    },
    {
      "inputs": [],
      "name": "proposalCount",
      "outputs": [
        {
          "internalType": "uint256",
          "name": "",
          "type": "uint256"
        }
      ],
      "stateMutability": "view",
      "type": "function"
    },
    {
      "inputs": [
        {
          "internalType": "uint256",
          "name": "",
          "type": "uint256"
        }
      ],
      "name": "proposals",
      "outputs": [
        {
          "internalType": "uint256",
          "name": "id",
          "type": "uint256"
        },
        {
          "internalType": "address",
          "name": "proposer",
          "type": "address"
        },
        {
          "internalType": "uint256",
          "name": "amount",
          "type": "uint256"
        },
        {
          "internalType": "string",
          "name": "description",
          "type": "string"
        },
        {
          "internalType": "uint256",
          "name": "yesVotes",
          "type": "uint256"
        },
        {
          "internalType": "uint256",
          "name": "noVotes",
          "type": "uint256"
        },
        {
          "internalType": "bool",
          "name": "executed",
          "type": "bool"
        }
      ],
      "stateMutability": "view",
      "type": "function"
    },
    {
      "inputs": [],
      "name": "quorum",
      "outputs": [
        {
          "internalType": "uint256",
          "name": "",
          "type": "uint256"
        }
      ],
      "stateMutability": "view",
      "type": "function"
    },
    {
      "inputs": [
        {
          "internalType": "address",
          "name": "_agent",
          "type": "address"
        }
      ],
      "name": "removeAgent",
      "outputs": [],
      "stateMutability": "nonpayable",
      "type": "function"
    },
    {
      "inputs": [],
      "name": "renounceOwnership",
      "outputs": [],
      "stateMutability": "nonpayable",
      "type": "function"
    },
    {
      "inputs": [],
      "name": "token",
      "outputs": [
        {
          "internalType": "contract IERC20",
          "name": "",
          "type": "address"
        }
      ],
      "stateMutability": "view",
      "type": "function"
    },
    {
      "inputs": [
        {
          "internalType": "address",
          "name": "newOwner",
          "type": "address"
        }
      ],
      "name": "transferOwnership",
      "outputs": [],
      "stateMutability": "nonpayable",
      "type": "function"
    },
    {
      "inputs": [
        {
          "internalType": "uint256",
          "name": "_proposalId",
          "type": "uint256"
        },
        {
          "internalType": "bool",
          "name": "_inSupport",
          "type": "bool"
        }
      ],
      "name": "vote",
      "outputs": [],
      "stateMutability": "nonpayable",
      "type": "function"
    },
    {
      "inputs": [],
      "name": "votingPeriod",
      "outputs": [
        {
          "internalType": "uint256",
          "name": "",
          "type": "uint256"
        }
      ],
      "stateMutability": "view",
      "type": "function"
    },
    {
      "inputs": [
        {
          "internalType": "uint256",
          "name": "_amount",
          "type": "uint256"
        }
      ],
      "name": "withdrawFunds",
      "outputs": [],
      "stateMutability": "nonpayable",
      "type": "function"
    }
  ],
  "transactionHash": "0x2b61313b27af65d4c77c950164a77799c1f5833d5f6d80bc539b0103f556dd64",
  "args": [
    "0x6154dC9A73EfE1055CD279Ce40B24C47D8f41041",
    5,
    86400
  ],
  "numDeployments": 2,
  "solcInputHash": "f3fbdff6bbde63966e6974be649a1b9c",
  "bytecode": "0x60806040523480156200001157600080fd5b506040516200266938038062002669833981810160405281019062000037919062000220565b620000576200004b620000af60201b60201c565b620000b760201b60201c565b82600160006101000a81548173ffffffffffffffffffffffffffffffffffffffff021916908373ffffffffffffffffffffffffffffffffffffffff16021790555081600581905550806006819055505050506200027c565b600033905090565b60008060009054906101000a900473ffffffffffffffffffffffffffffffffffffffff169050816000806101000a81548173ffffffffffffffffffffffffffffffffffffffff021916908373ffffffffffffffffffffffffffffffffffffffff1602179055508173ffffffffffffffffffffffffffffffffffffffff168173ffffffffffffffffffffffffffffffffffffffff167f8be0079c531659141344cd1fd0a4f28419497f9722a3daafe3b4186f6b6457e060405160405180910390a35050565b600080fd5b600073ffffffffffffffffffffffffffffffffffffffff82169050919050565b6000620001ad8262000180565b9050919050565b620001bf81620001a0565b8114620001cb57600080fd5b50565b600081519050620001df81620001b4565b92915050565b6000819050919050565b620001fa81620001e5565b81146200020657600080fd5b50565b6000815190506200021a81620001ef565b92915050565b6000806000606084860312156200023c576200023b6200017b565b5b60006200024c86828701620001ce565b93505060206200025f8682870162000209565b9250506040620002728682870162000209565b9150509250925092565b6123dd806200028c6000396000f3fe608060405234801561001057600080fd5b50600436106101005760003560e01c8063715018a611610097578063c9d27afe11610066578063c9d27afe14610290578063da35c664146102ac578063f2fde38b146102ca578063fc0c546a146102e657610100565b8063715018a61461023057806384e798421461023a5780638da5cb5b1461025657806397a6278e1461027457610100565b80631703a018116100d35780631703a018146101915780631ffbb064146101af5780633b4d01a7146101df5780633b76594d1461021457610100565b8063013cf08b1461010557806302a251a31461013b57806302d52fa414610159578063155dd5ee14610175575b600080fd5b61011f600480360381019061011a91906114a4565b610304565b60405161013297969594939291906115cc565b60405180910390f35b6101436103fb565b6040516101509190611642565b60405180910390f35b610173600480360381019061016e9190611792565b610401565b005b61018f600480360381019061018a91906114a4565b61056b565b005b6101996106e4565b6040516101a69190611642565b60405180910390f35b6101c960048036038101906101c4919061181a565b6106ea565b6040516101d69190611847565b60405180910390f35b6101f960048036038101906101f491906114a4565b61070a565b60405161020b96959493929190611862565b60405180910390f35b61022e600480360381019061022991906114a4565b610816565b005b6102386108ab565b005b610254600480360381019061024f919061181a565b6108bf565b005b61025e610959565b60405161026b91906118ca565b60405180910390f35b61028e6004803603810190610289919061181a565b610982565b005b6102aa60048036038101906102a59190611911565b610a1c565b005b6102b4610ca5565b6040516102c19190611642565b60405180910390f35b6102e460048036038101906102df919061181a565b610cab565b005b6102ee610d2e565b6040516102fb91906119b0565b60405180910390f35b60036020528060005260406000206000915090508060000154908060010160009054906101000a900473ffffffffffffffffffffffffffffffffffffffff1690806002015490806003018054610359906119fa565b80601f0160208091040260200160405190810160405280929190818152602001828054610385906119fa565b80156103d25780601f106103a7576101008083540402835291602001916103d2565b820191906000526020600020905b8154815290600101906020018083116103b557829003601f168201915b5050505050908060040154908060050154908060060160009054906101000a900460ff16905087565b60065481565b600260003373ffffffffffffffffffffffffffffffffffffffff1673ffffffffffffffffffffffffffffffffffffffff16815260200190815260200160002060009054906101000a900460ff1661048d576040517f08c379a000000000000000000000000000000000000000000000000000000000815260040161048490611a77565b60405180910390fd5b600460008154809291906104a090611ac6565b9190505550600060036000600454815260200190815260200160002090506004548160000181905550338160010160006101000a81548173ffffffffffffffffffffffffffffffffffffffff021916908373ffffffffffffffffffffffffffffffffffffffff160217905550828160020181905550818160030190816105269190611cb0565b507f85b1e5bd1e58840265c40582ff09f8cbfab823e041a824467b654a99b5156d3960045433858560405161055e9493929190611d82565b60405180910390a1505050565b610573610d54565b600081116105b6576040517f08c379a00000000000000000000000000000000000000000000000000000000081526004016105ad90611e1a565b60405180910390fd5b80600160009054906101000a900473ffffffffffffffffffffffffffffffffffffffff1673ffffffffffffffffffffffffffffffffffffffff166370a08231306040518263ffffffff1660e01b815260040161061291906118ca565b602060405180830381865afa15801561062f573d6000803e3d6000fd5b505050506040513d601f19601f820116820180604052508101906106539190611e4f565b1015610694576040517f08c379a000000000000000000000000000000000000000000000000000000000815260040161068b90611ec8565b60405180910390fd5b6106e13382600160009054906101000a900473ffffffffffffffffffffffffffffffffffffffff1673ffffffffffffffffffffffffffffffffffffffff16610dd29092919063ffffffff16565b50565b60055481565b60026020528060005260406000206000915054906101000a900460ff1681565b60008060606000806000806003600089815260200190815260200160002090508060010160009054906101000a900473ffffffffffffffffffffffffffffffffffffffff16816002015482600301836004015484600501548560060160009054906101000a900460ff16838054610780906119fa565b80601f01602080910402602001604051908101604052809291908181526020018280546107ac906119fa565b80156107f95780601f106107ce576101008083540402835291602001916107f9565b820191906000526020600020905b8154815290600101906020018083116107dc57829003601f168201915b505050505093509650965096509650965096505091939550919395565b60008111610859576040517f08c379a000000000000000000000000000000000000000000000000000000000815260040161085090611e1a565b60405180910390fd5b6108a8333083600160009054906101000a900473ffffffffffffffffffffffffffffffffffffffff1673ffffffffffffffffffffffffffffffffffffffff16610e58909392919063ffffffff16565b50565b6108b3610d54565b6108bd6000610ee1565b565b6108c7610d54565b6001600260008373ffffffffffffffffffffffffffffffffffffffff1673ffffffffffffffffffffffffffffffffffffffff16815260200190815260200160002060006101000a81548160ff0219169083151502179055507ff68e73cec97f2d70aa641fb26e87a4383686e2efacb648f2165aeb02ac562ec58160405161094e91906118ca565b60405180910390a150565b60008060009054906101000a900473ffffffffffffffffffffffffffffffffffffffff16905090565b61098a610d54565b6000600260008373ffffffffffffffffffffffffffffffffffffffff1673ffffffffffffffffffffffffffffffffffffffff16815260200190815260200160002060006101000a81548160ff0219169083151502179055507fed9c8ad8d5a0a66898ea49d2956929c93ae2e8bd50281b2ed897c5d1a6737e0b81604051610a1191906118ca565b60405180910390a150565b600260003373ffffffffffffffffffffffffffffffffffffffff1673ffffffffffffffffffffffffffffffffffffffff16815260200190815260200160002060009054906101000a900460ff16610aa8576040517f08c379a0000000000000000000000000000000000000000000000000000000008152600401610a9f90611a77565b60405180910390fd5b60006003600084815260200190815260200160002090508060070160003373ffffffffffffffffffffffffffffffffffffffff1673ffffffffffffffffffffffffffffffffffffffff16815260200190815260200160002060009054906101000a900460ff1615610b4e576040517f08c379a0000000000000000000000000000000000000000000000000000000008152600401610b4590611f34565b60405180910390fd5b8060060160009054906101000a900460ff1615610ba0576040517f08c379a0000000000000000000000000000000000000000000000000000000008152600401610b9790611fa0565b60405180910390fd5b60018160070160003373ffffffffffffffffffffffffffffffffffffffff1673ffffffffffffffffffffffffffffffffffffffff16815260200190815260200160002060006101000a81548160ff0219169083151502179055508115610c1f57806004016000815480929190610c1590611ac6565b9190505550610c3a565b806005016000815480929190610c3490611ac6565b91905055505b7ff2913dbe661ee2acc4a046d8fbcdc792373bda34c41c6086484b5345e5785e5f833384604051610c6d93929190611fc0565b60405180910390a16005548160040154118015610c91575080600501548160040154115b15610ca057610c9f83610fa5565b5b505050565b60045481565b610cb3610d54565b600073ffffffffffffffffffffffffffffffffffffffff168173ffffffffffffffffffffffffffffffffffffffff1603610d22576040517f08c379a0000000000000000000000000000000000000000000000000000000008152600401610d1990612069565b60405180910390fd5b610d2b81610ee1565b50565b600160009054906101000a900473ffffffffffffffffffffffffffffffffffffffff1681565b610d5c6111bd565b73ffffffffffffffffffffffffffffffffffffffff16610d7a610959565b73ffffffffffffffffffffffffffffffffffffffff1614610dd0576040517f08c379a0000000000000000000000000000000000000000000000000000000008152600401610dc7906120d5565b60405180910390fd5b565b610e538363a9059cbb60e01b8484604051602401610df19291906120f5565b604051602081830303815290604052907bffffffffffffffffffffffffffffffffffffffffffffffffffffffff19166020820180517bffffffffffffffffffffffffffffffffffffffffffffffffffffffff83818316178352505050506111c5565b505050565b610edb846323b872dd60e01b858585604051602401610e799392919061211e565b604051602081830303815290604052907bffffffffffffffffffffffffffffffffffffffffffffffffffffffff19166020820180517bffffffffffffffffffffffffffffffffffffffffffffffffffffffff83818316178352505050506111c5565b50505050565b60008060009054906101000a900473ffffffffffffffffffffffffffffffffffffffff169050816000806101000a81548173ffffffffffffffffffffffffffffffffffffffff021916908373ffffffffffffffffffffffffffffffffffffffff1602179055508173ffffffffffffffffffffffffffffffffffffffff168173ffffffffffffffffffffffffffffffffffffffff167f8be0079c531659141344cd1fd0a4f28419497f9722a3daafe3b4186f6b6457e060405160405180910390a35050565b60006003600083815260200190815260200160002090508060060160009054906101000a900460ff161561100e576040517f08c379a000000000000000000000000000000000000000000000000000000000815260040161100590611fa0565b60405180910390fd5b8060020154600160009054906101000a900473ffffffffffffffffffffffffffffffffffffffff1673ffffffffffffffffffffffffffffffffffffffff166370a08231306040518263ffffffff1660e01b815260040161106e91906118ca565b602060405180830381865afa15801561108b573d6000803e3d6000fd5b505050506040513d601f19601f820116820180604052508101906110af9190611e4f565b10156110f0576040517f08c379a00000000000000000000000000000000000000000000000000000000081526004016110e790611ec8565b60405180910390fd5b60018160060160006101000a81548160ff0219169083151502179055506111828160010160009054906101000a900473ffffffffffffffffffffffffffffffffffffffff168260020154600160009054906101000a900473ffffffffffffffffffffffffffffffffffffffff1673ffffffffffffffffffffffffffffffffffffffff16610dd29092919063ffffffff16565b7f712ae1383f79ac853f8d882153778e0260ef8f03b504e2866e0593e04d2b291f826040516111b19190611642565b60405180910390a15050565b600033905090565b6000611227826040518060400160405280602081526020017f5361666545524332303a206c6f772d6c6576656c2063616c6c206661696c65648152508573ffffffffffffffffffffffffffffffffffffffff1661128d9092919063ffffffff16565b9050600081511480611249575080806020019051810190611248919061216a565b5b611288576040517f08c379a000000000000000000000000000000000000000000000000000000000815260040161127f90612209565b60405180910390fd5b505050565b606061129c84846000856112a5565b90509392505050565b6060824710156112ea576040517f08c379a00000000000000000000000000000000000000000000000000000000081526004016112e19061229b565b60405180910390fd5b6000808673ffffffffffffffffffffffffffffffffffffffff1685876040516113139190612302565b60006040518083038185875af1925050503d8060008114611350576040519150601f19603f3d011682016040523d82523d6000602084013e611355565b606091505b509150915061136687838387611372565b92505050949350505050565b606083156113d45760008351036113cc5761138c856113e7565b6113cb576040517f08c379a00000000000000000000000000000000000000000000000000000000081526004016113c290612365565b60405180910390fd5b5b8290506113df565b6113de838361140a565b5b949350505050565b6000808273ffffffffffffffffffffffffffffffffffffffff163b119050919050565b60008251111561141d5781518083602001fd5b806040517f08c379a00000000000000000000000000000000000000000000000000000000081526004016114519190612385565b60405180910390fd5b6000604051905090565b600080fd5b600080fd5b6000819050919050565b6114818161146e565b811461148c57600080fd5b50565b60008135905061149e81611478565b92915050565b6000602082840312156114ba576114b9611464565b5b60006114c88482850161148f565b91505092915050565b6114da8161146e565b82525050565b600073ffffffffffffffffffffffffffffffffffffffff82169050919050565b600061150b826114e0565b9050919050565b61151b81611500565b82525050565b600081519050919050565b600082825260208201905092915050565b60005b8381101561155b578082015181840152602081019050611540565b60008484015250505050565b6000601f19601f8301169050919050565b600061158382611521565b61158d818561152c565b935061159d81856020860161153d565b6115a681611567565b840191505092915050565b60008115159050919050565b6115c6816115b1565b82525050565b600060e0820190506115e1600083018a6114d1565b6115ee6020830189611512565b6115fb60408301886114d1565b818103606083015261160d8187611578565b905061161c60808301866114d1565b61162960a08301856114d1565b61163660c08301846115bd565b98975050505050505050565b600060208201905061165760008301846114d1565b92915050565b600080fd5b600080fd5b7f4e487b7100000000000000000000000000000000000000000000000000000000600052604160045260246000fd5b61169f82611567565b810181811067ffffffffffffffff821117156116be576116bd611667565b5b80604052505050565b60006116d161145a565b90506116dd8282611696565b919050565b600067ffffffffffffffff8211156116fd576116fc611667565b5b61170682611567565b9050602081019050919050565b82818337600083830152505050565b6000611735611730846116e2565b6116c7565b90508281526020810184848401111561175157611750611662565b5b61175c848285611713565b509392505050565b600082601f8301126117795761177861165d565b5b8135611789848260208601611722565b91505092915050565b600080604083850312156117a9576117a8611464565b5b60006117b78582860161148f565b925050602083013567ffffffffffffffff8111156117d8576117d7611469565b5b6117e485828601611764565b9150509250929050565b6117f781611500565b811461180257600080fd5b50565b600081359050611814816117ee565b92915050565b6000602082840312156118305761182f611464565b5b600061183e84828501611805565b91505092915050565b600060208201905061185c60008301846115bd565b92915050565b600060c0820190506118776000830189611512565b61188460208301886114d1565b81810360408301526118968187611578565b90506118a560608301866114d1565b6118b260808301856114d1565b6118bf60a08301846115bd565b979650505050505050565b60006020820190506118df6000830184611512565b92915050565b6118ee816115b1565b81146118f957600080fd5b50565b60008135905061190b816118e5565b92915050565b6000806040838503121561192857611927611464565b5b60006119368582860161148f565b9250506020611947858286016118fc565b9150509250929050565b6000819050919050565b600061197661197161196c846114e0565b611951565b6114e0565b9050919050565b60006119888261195b565b9050919050565b600061199a8261197d565b9050919050565b6119aa8161198f565b82525050565b60006020820190506119c560008301846119a1565b92915050565b7f4e487b7100000000000000000000000000000000000000000000000000000000600052602260045260246000fd5b60006002820490506001821680611a1257607f821691505b602082108103611a2557611a246119cb565b5b50919050565b7f4e6f7420616e20617574686f72697a6564206167656e74000000000000000000600082015250565b6000611a6160178361152c565b9150611a6c82611a2b565b602082019050919050565b60006020820190508181036000830152611a9081611a54565b9050919050565b7f4e487b7100000000000000000000000000000000000000000000000000000000600052601160045260246000fd5b6000611ad18261146e565b91507fffffffffffffffffffffffffffffffffffffffffffffffffffffffffffffffff8203611b0357611b02611a97565b5b600182019050919050565b60008190508160005260206000209050919050565b60006020601f8301049050919050565b600082821b905092915050565b600060088302611b707fffffffffffffffffffffffffffffffffffffffffffffffffffffffffffffffff82611b33565b611b7a8683611b33565b95508019841693508086168417925050509392505050565b6000611bad611ba8611ba38461146e565b611951565b61146e565b9050919050565b6000819050919050565b611bc783611b92565b611bdb611bd382611bb4565b848454611b40565b825550505050565b600090565b611bf0611be3565b611bfb818484611bbe565b505050565b5b81811015611c1f57611c14600082611be8565b600181019050611c01565b5050565b601f821115611c6457611c3581611b0e565b611c3e84611b23565b81016020851015611c4d578190505b611c61611c5985611b23565b830182611c00565b50505b505050565b600082821c905092915050565b6000611c8760001984600802611c69565b1980831691505092915050565b6000611ca08383611c76565b9150826002028217905092915050565b611cb982611521565b67ffffffffffffffff811115611cd257611cd1611667565b5b611cdc82546119fa565b611ce7828285611c23565b600060209050601f831160018114611d1a5760008415611d08578287015190505b611d128582611c94565b865550611d7a565b601f198416611d2886611b0e565b60005b82811015611d5057848901518255600182019150602085019450602081019050611d2b565b86831015611d6d5784890151611d69601f891682611c76565b8355505b6001600288020188555050505b505050505050565b6000608082019050611d9760008301876114d1565b611da46020830186611512565b611db160408301856114d1565b8181036060830152611dc38184611578565b905095945050505050565b7f416d6f756e74206d7573742062652067726561746572207468616e2030000000600082015250565b6000611e04601d8361152c565b9150611e0f82611dce565b602082019050919050565b60006020820190508181036000830152611e3381611df7565b9050919050565b600081519050611e4981611478565b92915050565b600060208284031215611e6557611e64611464565b5b6000611e7384828501611e3a565b91505092915050565b7f496e73756666696369656e742066756e64730000000000000000000000000000600082015250565b6000611eb260128361152c565b9150611ebd82611e7c565b602082019050919050565b60006020820190508181036000830152611ee181611ea5565b9050919050565b7f416c726561647920766f74656400000000000000000000000000000000000000600082015250565b6000611f1e600d8361152c565b9150611f2982611ee8565b602082019050919050565b60006020820190508181036000830152611f4d81611f11565b9050919050565b7f50726f706f73616c20616c726561647920657865637574656400000000000000600082015250565b6000611f8a60198361152c565b9150611f9582611f54565b602082019050919050565b60006020820190508181036000830152611fb981611f7d565b9050919050565b6000606082019050611fd560008301866114d1565b611fe26020830185611512565b611fef60408301846115bd565b949350505050565b7f4f776e61626c653a206e6577206f776e657220697320746865207a65726f206160008201527f6464726573730000000000000000000000000000000000000000000000000000602082015250565b600061205360268361152c565b915061205e82611ff7565b604082019050919050565b6000602082019050818103600083015261208281612046565b9050919050565b7f4f776e61626c653a2063616c6c6572206973206e6f7420746865206f776e6572600082015250565b60006120bf60208361152c565b91506120ca82612089565b602082019050919050565b600060208201905081810360008301526120ee816120b2565b9050919050565b600060408201905061210a6000830185611512565b61211760208301846114d1565b9392505050565b60006060820190506121336000830186611512565b6121406020830185611512565b61214d60408301846114d1565b949350505050565b600081519050612164816118e5565b92915050565b6000602082840312156121805761217f611464565b5b600061218e84828501612155565b91505092915050565b7f5361666545524332303a204552433230206f7065726174696f6e20646964206e60008201527f6f74207375636365656400000000000000000000000000000000000000000000602082015250565b60006121f3602a8361152c565b91506121fe82612197565b604082019050919050565b60006020820190508181036000830152612222816121e6565b9050919050565b7f416464726573733a20696e73756666696369656e742062616c616e636520666f60008201527f722063616c6c0000000000000000000000000000000000000000000000000000602082015250565b600061228560268361152c565b915061229082612229565b604082019050919050565b600060208201905081810360008301526122b481612278565b9050919050565b600081519050919050565b600081905092915050565b60006122dc826122bb565b6122e681856122c6565b93506122f681856020860161153d565b80840191505092915050565b600061230e82846122d1565b915081905092915050565b7f416464726573733a2063616c6c20746f206e6f6e2d636f6e7472616374000000600082015250565b600061234f601d8361152c565b915061235a82612319565b602082019050919050565b6000602082019050818103600083015261237e81612342565b9050919050565b6000602082019050818103600083015261239f8184611578565b90509291505056fea264697066735822122095248d4cd680ef827e85232a24dfa67cfda54862ec61cc99cc9c1b701647c79b64736f6c63430008110033",
  "devdoc": {
    "kind": "dev",
    "methods": {
      "owner()": {
        "details": "Returns the address of the current owner."
      },
      "renounceOwnership()": {
        "details": "Leaves the contract without owner. It will not be possible to call `onlyOwner` functions. Can only be called by the current owner. NOTE: Renouncing ownership will leave the contract without an owner, thereby disabling any functionality that is only available to the owner."
      },
      "transferOwnership(address)": {
        "details": "Transfers ownership of the contract to a new account (`newOwner`). Can only be called by the current owner."
      }
    },
    "version": 1
  },
  "userdoc": {
    "kind": "user",
    "methods": {},
    "version": 1
  },
  "storageLayout": {
    "storage": [
      {
        "astId": 7,
        "contract": "contracts/DisasterResponseDAO.sol:DisasterResponseDAO",
        "label": "_owner",
        "offset": 0,
        "slot": "0",
        "type": "t_address"
      },
      {
        "astId": 2617,
        "contract": "contracts/DisasterResponseDAO.sol:DisasterResponseDAO",
        "label": "token",
        "offset": 0,
        "slot": "1",
        "type": "t_contract(IERC20)777"
      },
      {
        "astId": 2621,
        "contract": "contracts/DisasterResponseDAO.sol:DisasterResponseDAO",
        "label": "isAgent",
        "offset": 0,
        "slot": "2",
        "type": "t_mapping(t_address,t_bool)"
      },
      {
        "astId": 2626,
        "contract": "contracts/DisasterResponseDAO.sol:DisasterResponseDAO",
        "label": "proposals",
        "offset": 0,
        "slot": "3",
        "type": "t_mapping(t_uint256,t_struct(Proposal)2614_storage)"
      },
      {
        "astId": 2628,
        "contract": "contracts/DisasterResponseDAO.sol:DisasterResponseDAO",
        "label": "proposalCount",
        "offset": 0,
        "slot": "4",
        "type": "t_uint256"
      },
      {
        "astId": 2630,
        "contract": "contracts/DisasterResponseDAO.sol:DisasterResponseDAO",
        "label": "quorum",
        "offset": 0,
        "slot": "5",
        "type": "t_uint256"
      },
      {
        "astId": 2632,
        "contract": "contracts/DisasterResponseDAO.sol:DisasterResponseDAO",
        "label": "votingPeriod",
        "offset": 0,
        "slot": "6",
        "type": "t_uint256"
      }
    ],
    "types": {
      "t_address": {
        "encoding": "inplace",
        "label": "address",
        "numberOfBytes": "20"
      },
      "t_bool": {
        "encoding": "inplace",
        "label": "bool",
        "numberOfBytes": "1"
      },
      "t_contract(IERC20)777": {
        "encoding": "inplace",
        "label": "contract IERC20",
        "numberOfBytes": "20"
      },
      "t_mapping(t_address,t_bool)": {
        "encoding": "mapping",
        "key": "t_address",
        "label": "mapping(address => bool)",
        "numberOfBytes": "32",
        "value": "t_bool"
      },
      "t_mapping(t_uint256,t_struct(Proposal)2614_storage)": {
        "encoding": "mapping",
        "key": "t_uint256",
        "label": "mapping(uint256 => struct DisasterResponseDAO.Proposal)",
        "numberOfBytes": "32",
        "value": "t_struct(Proposal)2614_storage"
      },
      "t_string_storage": {
        "encoding": "bytes",
        "label": "string",
        "numberOfBytes": "32"
      },
      "t_struct(Proposal)2614_storage": {
        "encoding": "inplace",
        "label": "struct DisasterResponseDAO.Proposal",
        "members": [
          {
            "astId": 2597,
            "contract": "contracts/DisasterResponseDAO.sol:DisasterResponseDAO",
            "label": "id",
            "offset": 0,
            "slot": "0",
            "type": "t_uint256"
          },
          {
            "astId": 2599,
            "contract": "contracts/DisasterResponseDAO.sol:DisasterResponseDAO",
            "label": "proposer",
            "offset": 0,
            "slot": "1",
            "type": "t_address"
          },
          {
            "astId": 2601,
            "contract": "contracts/DisasterResponseDAO.sol:DisasterResponseDAO",
            "label": "amount",
            "offset": 0,
            "slot": "2",
            "type": "t_uint256"
          },
          {
            "astId": 2603,
            "contract": "contracts/DisasterResponseDAO.sol:DisasterResponseDAO",
            "label": "description",
            "offset": 0,
            "slot": "3",
            "type": "t_string_storage"
          },
          {
            "astId": 2605,
            "contract": "contracts/DisasterResponseDAO.sol:DisasterResponseDAO",
            "label": "yesVotes",
            "offset": 0,
            "slot": "4",
            "type": "t_uint256"
          },
          {
            "astId": 2607,
            "contract": "contracts/DisasterResponseDAO.sol:DisasterResponseDAO",
            "label": "noVotes",
            "offset": 0,
            "slot": "5",
            "type": "t_uint256"
          },
          {
            "astId": 2609,
            "contract": "contracts/DisasterResponseDAO.sol:DisasterResponseDAO",
            "label": "executed",
            "offset": 0,
            "slot": "6",
            "type": "t_bool"
          },
          {
            "astId": 2613,
            "contract": "contracts/DisasterResponseDAO.sol:DisasterResponseDAO",
            "label": "hasVoted",
            "offset": 0,
            "slot": "7",
            "type": "t_mapping(t_address,t_bool)"
          }
        ],
        "numberOfBytes": "256"
      },
      "t_uint256": {
        "encoding": "inplace",
        "label": "uint256",
        "numberOfBytes": "32"
      }
    }
  }
}