{
  "address": "0x5369FB31a3552370ddd26b90a6c81B22DD4d55df",
  "abi": [
    {
      "anonymous": false,
      "inputs": [
        {
          "indexed": true,
          "internalType": "address",
          "name": "previousOwner",
          "type": "address"
        },
        {
          "indexed": true,
          "internalType": "address",
          "name": "newOwner",
          "type": "address"
        }
      ],
      "name": "OwnershipTransferred",
      "type": "event"
    },
    {
      "inputs": [],
      "name": "monitorGlobalNews",
      "outputs": [
        {
          "internalType": "string",
          "name": "",
          "type": "string"
        }
      ],
      "stateMutability": "pure",
      "type": "function"
    },
    {
      "inputs": [],
      "name": "owner",
      "outputs": [
        {
          "internalType": "address",
          "name": "",
          "type": "address"
        }
      ],
      "stateMutability": "view",
      "type": "function"
    },
    {
      "inputs": [],
      "name": "renounceOwnership",
      "outputs": [],
      "stateMutability": "nonpayable",
      "type": "function"
    },
    {
      "inputs": [
        {
          "internalType": "string",
          "name": "_disasterInfo",
          "type": "string"
        }
      ],
      "name": "reportGlobalDisaster",
      "outputs": [
        {
          "internalType": "string",
          "name": "",
          "type": "string"
        }
      ],
      "stateMutability": "pure",
      "type": "function"
    },
    {
      "inputs": [
        {
          "internalType": "address",
          "name": "newOwner",
          "type": "address"
        }
      ],
      "name": "transferOwnership",
      "outputs": [],
      "stateMutability": "nonpayable",
      "type": "function"
    }
  ],
  "transactionHash": "0x4cbd9127dd18f0907055f4777ea71b0f708e62c545029a5217eb10bf19bd2c2c",
  "args": [],
  "numDeployments": 1,
  "solcInputHash": "fcbf6996c81b3bd9dd32542bf0ca0e14",
  "bytecode": "0x608060405234801561001057600080fd5b5061002d61002261003260201b60201c565b61003a60201b60201c565b6100fe565b600033905090565b60008060009054906101000a900473ffffffffffffffffffffffffffffffffffffffff169050816000806101000a81548173ffffffffffffffffffffffffffffffffffffffff021916908373ffffffffffffffffffffffffffffffffffffffff1602179055508173ffffffffffffffffffffffffffffffffffffffff168173ffffffffffffffffffffffffffffffffffffffff167f8be0079c531659141344cd1fd0a4f28419497f9722a3daafe3b4186f6b6457e060405160405180910390a35050565b6108358061010d6000396000f3fe608060405234801561001057600080fd5b50600436106100575760003560e01c80635ee891381461005c578063715018a61461007a5780638da5cb5b14610084578063bab7378a146100a2578063f2fde38b146100d2575b600080fd5b6100646100ee565b60405161007191906103ee565b60405180910390f35b61008261012b565b005b61008c61013f565b6040516100999190610451565b60405180910390f35b6100bc60048036038101906100b791906105b5565b610168565b6040516100c991906103ee565b60405180910390f35b6100ec60048036038101906100e7919061062a565b610191565b005b60606040518060400160405280601e81526020017f4d6f6e69746f72696e6720676c6f62616c206e65777320736f75726365730000815250905090565b610133610214565b61013d6000610292565b565b60008060009054906101000a900473ffffffffffffffffffffffffffffffffffffffff16905090565b60608160405160200161017b91906106df565b6040516020818303038152906040529050919050565b610199610214565b600073ffffffffffffffffffffffffffffffffffffffff168173ffffffffffffffffffffffffffffffffffffffff1603610208576040517f08c379a00000000000000000000000000000000000000000000000000000000081526004016101ff90610773565b60405180910390fd5b61021181610292565b50565b61021c610356565b73ffffffffffffffffffffffffffffffffffffffff1661023a61013f565b73ffffffffffffffffffffffffffffffffffffffff1614610290576040517f08c379a0000000000000000000000000000000000000000000000000000000008152600401610287906107df565b60405180910390fd5b565b60008060009054906101000a900473ffffffffffffffffffffffffffffffffffffffff169050816000806101000a81548173ffffffffffffffffffffffffffffffffffffffff021916908373ffffffffffffffffffffffffffffffffffffffff1602179055508173ffffffffffffffffffffffffffffffffffffffff168173ffffffffffffffffffffffffffffffffffffffff167f8be0079c531659141344cd1fd0a4f28419497f9722a3daafe3b4186f6b6457e060405160405180910390a35050565b600033905090565b600081519050919050565b600082825260208201905092915050565b60005b8381101561039857808201518184015260208101905061037d565b60008484015250505050565b6000601f19601f8301169050919050565b60006103c08261035e565b6103ca8185610369565b93506103da81856020860161037a565b6103e3816103a4565b840191505092915050565b6000602082019050818103600083015261040881846103b5565b905092915050565b600073ffffffffffffffffffffffffffffffffffffffff82169050919050565b600061043b82610410565b9050919050565b61044b81610430565b82525050565b60006020820190506104666000830184610442565b92915050565b6000604051905090565b600080fd5b600080fd5b600080fd5b600080fd5b7f4e487b7100000000000000000000000000000000000000000000000000000000600052604160045260246000fd5b6104c2826103a4565b810181811067ffffffffffffffff821117156104e1576104e061048a565b5b80604052505050565b60006104f461046c565b905061050082826104b9565b919050565b600067ffffffffffffffff8211156105205761051f61048a565b5b610529826103a4565b9050602081019050919050565b82818337600083830152505050565b600061055861055384610505565b6104ea565b90508281526020810184848401111561057457610573610485565b5b61057f848285610536565b509392505050565b600082601f83011261059c5761059b610480565b5b81356105ac848260208601610545565b91505092915050565b6000602082840312156105cb576105ca610476565b5b600082013567ffffffffffffffff8111156105e9576105e861047b565b5b6105f584828501610587565b91505092915050565b61060781610430565b811461061257600080fd5b50565b600081359050610624816105fe565b92915050565b6000602082840312156106405761063f610476565b5b600061064e84828501610615565b91505092915050565b600081905092915050565b7f5265706f7274696e6720676c6f62616c2064697361737465723a200000000000600082015250565b6000610698601b83610657565b91506106a382610662565b601b82019050919050565b60006106b98261035e565b6106c38185610657565b93506106d381856020860161037a565b80840191505092915050565b60006106ea8261068b565b91506106f682846106ae565b915081905092915050565b7f4f776e61626c653a206e6577206f776e657220697320746865207a65726f206160008201527f6464726573730000000000000000000000000000000000000000000000000000602082015250565b600061075d602683610369565b915061076882610701565b604082019050919050565b6000602082019050818103600083015261078c81610750565b9050919050565b7f4f776e61626c653a2063616c6c6572206973206e6f7420746865206f776e6572600082015250565b60006107c9602083610369565b91506107d482610793565b602082019050919050565b600060208201905081810360008301526107f8816107bc565b905091905056fea2646970667358221220d701ddacc7509da76f3879fea847647a50a79333d8836d340ccffa0f8ba5869a64736f6c63430008110033",
  "devdoc": {
    "kind": "dev",
    "methods": {
      "owner()": {
        "details": "Returns the address of the current owner."
      },
      "renounceOwnership()": {
        "details": "Leaves the contract without owner. It will not be possible to call `onlyOwner` functions. Can only be called by the current owner. NOTE: Renouncing ownership will leave the contract without an owner, thereby disabling any functionality that is only available to the owner."
      },
      "transferOwnership(address)": {
        "details": "Transfers ownership of the contract to a new account (`newOwner`). Can only be called by the current owner."
      }
    },
    "version": 1
  },
  "userdoc": {
    "kind": "user",
    "methods": {},
    "version": 1
  },
  "storageLayout": {
    "storage": [
      {
        "astId": 7,
        "contract": "contracts/agents/GlobalAgent.sol:GlobalAgent",
        "label": "_owner",
        "offset": 0,
        "slot": "0",
        "type": "t_address"
      }
    ],
    "types": {
      "t_address": {
        "encoding": "inplace",
        "label": "address",
        "numberOfBytes": "20"
      }
    }
  }
}