{
  "address": "0x7B39bfCF0aEF56C67c9575e3F42dfFf734fa1557",
  "abi": [
    {
      "anonymous": false,
      "inputs": [
        {
          "indexed": true,
          "internalType": "address",
          "name": "previousOwner",
          "type": "address"
        },
        {
          "indexed": true,
          "internalType": "address",
          "name": "newOwner",
          "type": "address"
        }
      ],
      "name": "OwnershipTransferred",
      "type": "event"
    },
    {
      "inputs": [],
      "name": "monitorRegionalCommunications",
      "outputs": [
        {
          "internalType": "string",
          "name": "",
          "type": "string"
        }
      ],
      "stateMutability": "pure",
      "type": "function"
    },
    {
      "inputs": [],
      "name": "owner",
      "outputs": [
        {
          "internalType": "address",
          "name": "",
          "type": "address"
        }
      ],
      "stateMutability": "view",
      "type": "function"
    },
    {
      "inputs": [],
      "name": "renounceOwnership",
      "outputs": [],
      "stateMutability": "nonpayable",
      "type": "function"
    },
    {
      "inputs": [
        {
          "internalType": "string",
          "name": "_disasterInfo",
          "type": "string"
        }
      ],
      "name": "reportRegionalDisaster",
      "outputs": [
        {
          "internalType": "string",
          "name": "",
          "type": "string"
        }
      ],
      "stateMutability": "pure",
      "type": "function"
    },
    {
      "inputs": [
        {
          "internalType": "address",
          "name": "newOwner",
          "type": "address"
        }
      ],
      "name": "transferOwnership",
      "outputs": [],
      "stateMutability": "nonpayable",
      "type": "function"
    }
  ],
  "transactionHash": "0x519a78416354fe4867f16cfe184dc7ba4b0f0aeda2a40e5451a06bc854e53c86",
  "args": [],
  "numDeployments": 1,
  "solcInputHash": "fcbf6996c81b3bd9dd32542bf0ca0e14",
  "bytecode": "0x608060405234801561001057600080fd5b5061002d61002261003260201b60201c565b61003a60201b60201c565b6100fe565b600033905090565b60008060009054906101000a900473ffffffffffffffffffffffffffffffffffffffff169050816000806101000a81548173ffffffffffffffffffffffffffffffffffffffff021916908373ffffffffffffffffffffffffffffffffffffffff1602179055508173ffffffffffffffffffffffffffffffffffffffff168173ffffffffffffffffffffffffffffffffffffffff167f8be0079c531659141344cd1fd0a4f28419497f9722a3daafe3b4186f6b6457e060405160405180910390a35050565b61083a8061010d6000396000f3fe608060405234801561001057600080fd5b50600436106100575760003560e01c806360cd14591461005c578063715018a61461007a5780638da5cb5b14610084578063e436faa7146100a2578063f2fde38b146100d2575b600080fd5b6100646100ee565b60405161007191906103d1565b60405180910390f35b61008261010e565b005b61008c610122565b6040516100999190610434565b60405180910390f35b6100bc60048036038101906100b79190610598565b61014b565b6040516100c991906103d1565b60405180910390f35b6100ec60048036038101906100e7919061060d565b610174565b005b60606040518060600160405280602281526020016107e360229139905090565b6101166101f7565b6101206000610275565b565b60008060009054906101000a900473ffffffffffffffffffffffffffffffffffffffff16905090565b60608160405160200161015e91906106c2565b6040516020818303038152906040529050919050565b61017c6101f7565b600073ffffffffffffffffffffffffffffffffffffffff168173ffffffffffffffffffffffffffffffffffffffff16036101eb576040517f08c379a00000000000000000000000000000000000000000000000000000000081526004016101e290610756565b60405180910390fd5b6101f481610275565b50565b6101ff610339565b73ffffffffffffffffffffffffffffffffffffffff1661021d610122565b73ffffffffffffffffffffffffffffffffffffffff1614610273576040517f08c379a000000000000000000000000000000000000000000000000000000000815260040161026a906107c2565b60405180910390fd5b565b60008060009054906101000a900473ffffffffffffffffffffffffffffffffffffffff169050816000806101000a81548173ffffffffffffffffffffffffffffffffffffffff021916908373ffffffffffffffffffffffffffffffffffffffff1602179055508173ffffffffffffffffffffffffffffffffffffffff168173ffffffffffffffffffffffffffffffffffffffff167f8be0079c531659141344cd1fd0a4f28419497f9722a3daafe3b4186f6b6457e060405160405180910390a35050565b600033905090565b600081519050919050565b600082825260208201905092915050565b60005b8381101561037b578082015181840152602081019050610360565b60008484015250505050565b6000601f19601f8301169050919050565b60006103a382610341565b6103ad818561034c565b93506103bd81856020860161035d565b6103c681610387565b840191505092915050565b600060208201905081810360008301526103eb8184610398565b905092915050565b600073ffffffffffffffffffffffffffffffffffffffff82169050919050565b600061041e826103f3565b9050919050565b61042e81610413565b82525050565b60006020820190506104496000830184610425565b92915050565b6000604051905090565b600080fd5b600080fd5b600080fd5b600080fd5b7f4e487b7100000000000000000000000000000000000000000000000000000000600052604160045260246000fd5b6104a582610387565b810181811067ffffffffffffffff821117156104c4576104c361046d565b5b80604052505050565b60006104d761044f565b90506104e3828261049c565b919050565b600067ffffffffffffffff8211156105035761050261046d565b5b61050c82610387565b9050602081019050919050565b82818337600083830152505050565b600061053b610536846104e8565b6104cd565b90508281526020810184848401111561055757610556610468565b5b610562848285610519565b509392505050565b600082601f83011261057f5761057e610463565b5b813561058f848260208601610528565b91505092915050565b6000602082840312156105ae576105ad610459565b5b600082013567ffffffffffffffff8111156105cc576105cb61045e565b5b6105d88482850161056a565b91505092915050565b6105ea81610413565b81146105f557600080fd5b50565b600081359050610607816105e1565b92915050565b60006020828403121561062357610622610459565b5b6000610631848285016105f8565b91505092915050565b600081905092915050565b7f5265706f7274696e6720726567696f6e616c2064697361737465723a20000000600082015250565b600061067b601d8361063a565b915061068682610645565b601d82019050919050565b600061069c82610341565b6106a6818561063a565b93506106b681856020860161035d565b80840191505092915050565b60006106cd8261066e565b91506106d98284610691565b915081905092915050565b7f4f776e61626c653a206e6577206f776e657220697320746865207a65726f206160008201527f6464726573730000000000000000000000000000000000000000000000000000602082015250565b600061074060268361034c565b915061074b826106e4565b604082019050919050565b6000602082019050818103600083015261076f81610733565b9050919050565b7f4f776e61626c653a2063616c6c6572206973206e6f7420746865206f776e6572600082015250565b60006107ac60208361034c565b91506107b782610776565b602082019050919050565b600060208201905081810360008301526107db8161079f565b905091905056fe4d6f6e69746f72696e6720726567696f6e616c20636f6d6d756e69636174696f6e73a2646970667358221220317b4ff022a6b55f7990f1095a52ff824808c355ae6e999fa26a954f7feceefc64736f6c63430008110033",
  "devdoc": {
    "kind": "dev",
    "methods": {
      "owner()": {
        "details": "Returns the address of the current owner."
      },
      "renounceOwnership()": {
        "details": "Leaves the contract without owner. It will not be possible to call `onlyOwner` functions. Can only be called by the current owner. NOTE: Renouncing ownership will leave the contract without an owner, thereby disabling any functionality that is only available to the owner."
      },
      "transferOwnership(address)": {
        "details": "Transfers ownership of the contract to a new account (`newOwner`). Can only be called by the current owner."
      }
    },
    "version": 1
  },
  "userdoc": {
    "kind": "user",
    "methods": {},
    "version": 1
  },
  "storageLayout": {
    "storage": [
      {
        "astId": 7,
        "contract": "contracts/agents/RegionalAgent.sol:RegionalAgent",
        "label": "_owner",
        "offset": 0,
        "slot": "0",
        "type": "t_address"
      }
    ],
    "types": {
      "t_address": {
        "encoding": "inplace",
        "label": "address",
        "numberOfBytes": "20"
      }
    }
  }
}